S01100006C6162365F636F64652E73726563B4
S11300000C9497000C94B6000C94B6000C94B600B3
S11300100C94B6000C94B6000C94B6000C94B60084
S11300200C94B6000C94B6000C94B6000C94B60074
S11300300C94AE050C94B6000C94B6000C94B60067
S11300400C9439050C94B6000C9409050C94B60074
S11300500C94B6000C94B6000C94B6000C94B60044
S11300600C94B6000C94B6000C94B6000C94B60034
S11300700C94B6000C94B6000C94B6000C94B60024
S11300800C94B6000C94DA050C94B6001B06F20529
S1130090F205F205F205F205F205F2051B06F2057A
S11300A0F205F205F205F205F205F2052506F20560
S11300B0F205F205F205F205F205F205F205F20584
S11300C0F205F205F205F205F205F2052506F20540
S11300D0F205F205F205F205F205F205F205F20564
S11300E0F205F205F205F205F205F2053C06F20509
S11300F0F205F205F205F205F205F2054006F205F5
S1130100F205F205F205F205F205F205F205F20533
S1130110F205F205F205F205F205F2054E06F205C6
S1130120F205F205F205F205F205F2050C061124BA
S11301301FBECFEFD0E1DEBFCDBF12E0A0E0B1E043
S1130140EEEDFEE100E00BBF02C007900D92AC3172
S1130150B107D9F723E0ACE1B2E001C01D92A336A8
S1130160B207E1F70E94C50C0C946D0F0C940000CB
S113017080911401909115018C33910509F485C087
S1130180803A910509F443C0843021E0920709F0D4
S1130190BAC08CE291E090931501809314018439E4
S11301A022E0920709F0B9C08CEB92E0909315011C
S11301B080931401843224E0920709F0B8C08CE4DF
S11301C094E09093150180931401843B25E09207F9
S11301D009F0B7C08CED95E090931501809314015C
S11301E0843427E0920709F0B6C08CE697E0909338
S11301F0150180931401843D28E0920709F0B5C0ED
S11302008CEF98E09093150180931401089588EC85
S113021090E09093150180931401803322E09207BB
S113022009F0BDCF88E592E0909315018093140105
S1130230803C23E0920709F0BDCF88EE93E09093D1
S1130240150180931401803525E0920709F0BDCF94
S113025088E795E09093150180931401803E26E091
S1130260920709F0BDCF88E097E090931501809341
S11302701401803728E0920709F0BDCF88E998E09F
S11302809093150180931401089584E690E090936F
S11302901501809314018C3C21E0920709F0BDCF35
S11302A084EF91E090931501809314018C3523E041
S11302B0920709F0BDCF84E893E0909315018093F1
S11302C014018C3E24E0920709F0BDCF84E195E04F
S11302D090931501809314018C3726E0920709F05E
S11302E0BDCF84EA96E090931501809314018C307D
S11302F028E0920709F0BDCF84E398E090931501BC
S1130300809314010895883621E0920721F680E94C
S113031091E09093150180931401883F22E09207A5
S113032029F680E293E090931501809314018838B4
S113033024E0920731F680EB94E0909315018093CA
S11303401401883126E0920739F680E496E0909310
S1130350150180931401883A27E0920741F680ED55
S113036097E090931501809314018833994021F408
S113037010921501109214010895482FE82FF0E00F
S113038099B3EE0FFF1FE45DFD4F20813181220FF1
S1130390331F306E892F90E002C0959587954A955A
S11303A0E2F781709927282B392B3183208381E050
S11303B02115304F09F080E0089588B3806788BB29
S11303C060912002ECE2F2E040E050E0A1E015C0D0
S11303D0862F837019F4789460912002862F877099
S11303E08130D1F1823021F4A0931F0210922302B4
S11303F04F5F5F4F46305105B1F171E0740F99B30F
S113040020813181220F331F306E892F90E0042E1A
S113041002C0959587950A94E2F781709927282B55
S1130420392B3183208389B390E0042E02C0959543
S113043087950A94E2F781709927906E220F331FF3
S1130440822B932B819391938115904F09F0C0CF08
S1130450672760932002BCCF80931F024F5F5F4FDA
S11304604630510551F688B388BB809120028FB97C
S1130470779BFECF8FB180931E0280E00895E1E662
S1130480F0E0808188608083E2E6F0E08081877F0D
S1130490808387EF87BB8DB180658DB9709A08958D
S11304A00F931F93CF93DF93EC0164E670E00E94F7
S11304B0870ECB010AE010E0B8010E94870EFC0110
S11304C0CE0168EE73E00E94870ECB01B8010E9452
S11304D0870E9C01CE01B8010E94870EDC01BB2768
S11304E0A050BF4F8C918093A402CB01B8010E940D
S11304F0870EDC01BB27A050BF4F8C918093A502CF
S11305008091230280FD22C080910A018093A6027B
S1130510FF27E050FF4F80818093A7023327F90122
S1130520E050FF4F80818093A802CA30D105ECF0DF
S1130530C436D10584F0C83ED3401CF48FEF8093B9
S1130540A802DF91CF911F910F91089580910B0123
S11305508093A602DDCF8FEF8093A7028093A80239
S1130560DF91CF911F910F9108958FEF8093A50292
S11305708093A7028093A802DF91CF911F910F91DE
S113058008958FEF82B91D9A000000001E980000A4
S113059000001E9A1D9890911E0280912002837083
S11305A08130B1F0823009F008959C7080912A0264
S11305B0843001F1C8F0883011F08C3011F490933C
S11305C02A022091140130911501C9010C945002A2
S11305D0292F237080912B028130B9F040F08230B2
S11305E031F0833021F00895882349F3EACF209332
S11305F02B0208959C3099F1992371F020911401F4
S11306003091150190932A02E0CF233091F02223F8
S113061099F120932B02C6CF80911F0220911401DF
S113062030911501281B31093093150120931401D1
S1130630E9CF80911F024091120150911301480F9C
S1130640511D5093130140931201EFE3FFE13197E1
S1130650F1F700C00000809120028370DACF80910E
S11306601F022091140130911501280F311D309380
S1130670150120931401C6CF80911F0240911201ED
S113068050911301481B5109DCCF8FEF82B91D9A99
S1130690000000001E98000000001E9A1D98909112
S11306A01E02292F237080912902813001F120F04C
S11306B0823011F0833011F42093290280912002BA
S11306C08370823009F008959C70809128028430F0
S11306D031F110F1883011F08C3011F4909328022C
S11306E02091140130911501C9010C94500223305A
S11306F009F12111E1CF40911601509117014451A4
S113070051095093170140931601EFE3FFE131972C
S1130710F1F700C00000D0CF882301F3E1CF9C3073
S113072039F19923C1F0209114013091150190936E
S11307302802DACF40911601509117014C5E5F4FA9
S11307405093170140931601EFE3FFE13197F1F75E
S113075000C00000B1CF80911F022091140130919C
S11307601501281B31093093150120931401DFCFA3
S113077080911F022091140130911501280F311D21
S11307803093150120931401D2CF0F931F93CF936D
S1130790DF93EC0164E670E00E94870ECB010AE06F
S11307A010E0B8010E94870EFC01CE0168EE73E0F0
S11307B00E94870ECB01B8010E94870E9C01CE01D6
S11307C0B8010E94870EDC01BB27A050BF4F8C915B
S11307D080936A02CB01B8010E94870EDC01BB271B
S11307E0A050BF4F8C9180936B028091230280FDB7
S11307F025C080910C018093A602FF27E050FF4F93
S1130800808180936D023327F901E050FF4F80818E
S113081080936E0280911401909115010A97E8F07B
S1130820C436D10584F0C83ED3401CF48FEF8093C6
S11308306E02DF91CF911F910F91089580910B016A
S11308408093A602DACF8FEF80936D0280936E02BD
S1130850DF91CF911F910F9108958FEF80936B02D9
S113086080936D0280936E02DF91CF911F910F915F
S11308700895CF93DF93EC019C01ADECBCEC0E9496
S1130880C30EAC0156954795569547955695479591
S11308909A01220F331FCA01880F991F880F991FCD
S11308A0880F991F820F931FFE01E81BF90BE0507C
S11308B0FF4F80818093A4029A010E94C30E9695F3
S11308C0879596958795969587959C01220F331F5A
S11308D0880F991F880F991F880F991F820F931FE4
S11308E0481B590BFA01E050FF4F80818093A50209
S11308F080910A018093A6029E013695279536952C
S11309002795ABE7B4E10E94C30EAC015695479519
S11309109A01ADECBCEC0E94C30E96958795969512
S11309208795969587959C01220F331F880F991FF1
S1130930880F991F880F991F820F931F481B590B0B
S1130940FA01E050FF4F80818093A7029E01369503
S113095027953695279536952795A5ECB0E20E9404
S1130960C30EAC01529542954F7045275F704527E1
S11309709A01ADECBCEC0E94C30E969587959695B2
S11309808795969587959C01220F331F880F991F91
S1130990880F991F880F991F820F931F481B590BAB
S11309A0FA01E050FF4F80818093A802CA30D1053C
S11309B0A0F0C436D10548F0C83ED34018F48FEFF8
S11309C08093A802DF91CF9108958FEF8093A702BF
S11309D08093A802DF91CF9108958FEF8093A502B1
S11309E08093A7028093A802DF91CF91089580B7E6
S11309F0886080BF81E083BF00B602FCFDCF00B6F3
S1130A0001FCFDCF00B600FCFDCF87B7816087BF36
S1130A1008951F920F920FB60F9211240BB60F92E6
S1130A202F933F934F935F936F937F938F939F93F2
S1130A30AF93BF93EF93FF938CB18093A3029091F4
S1130A402002953099F0FF91EF91BF91AF919F9162
S1130A508F917F916F915F914F913F912F910F9063
S1130A600BBE0F900FBE0F901F9018950E94C80ADE
S1130A70EACF1F920F920FB60F9211248F939F9378
S1130A80809127028F5F809327028F7759F480919A
S1130A9023028F5F809323028C33B9F0809120026C
S1130AA0833039F09F918F910F900FBE0F901F905C
S1130AB01895809122028F5F809322029F918F91DB
S1130AC00F900FBE0F901F90189580911401909174
S1130AD0150101969093150180931401109223023D
S1130AE0809120028330F1F6E4CFC09AC098089533
S1130AF085B5816685BD13BC089585B5816685BDC0
S1130B008BE283BD089585B5816685BD86E583BD89
S1130B10089585B5816685BD81E883BD089585B551
S1130B20816685BD8CEA83BD089585B5816685BDE2
S1130B3087ED83BD089585B5816685BD80EE83BD4F
S1130B4008951FBC8AE08EBD10927A0080E092E086
S1130B509BBD8ABD87B7806187BF08951F920F929E
S1130B600FB60F9211242F933F938F939F9320914D
S1130B7012013091130180911401909115012817ED
S1130B80390781F0809122028A3018F082B38058AC
S1130B9082BB9F918F913F912F910F900FBE0F9029
S1130BA01F90189580912002837061F782B380585A
S1130BB082BBE8CF1F920F920FB60F9211240BB68F
S1130BC00F922F933F938F939F93AF93BF93EF9382
S1130BD0FF93E09171008E2F90E0FC013897E1358E
S1130BE0F105B0F0809171008093A90284E08093B4
S1130BF07400FF91EF91BF91AF919F918F913F91BD
S1130C002F910F900BBE0F900FBE0F901F90189551
S1130C10EA5BFF4F0C94BA0E80913C02E091AA0269
S1130C20F091AB02E80FF11D80917300808384E999
S1130C3080937400DECF8091AC0280937300109295
S1130C403C0285E880937400D4CF80913C0290915B
S1130C50AD02891760F7E091AA02F091AB0291E02E
S1130C60980F90933C02E80FF11D808180937300EC
S1130C7085E880937400BDCF85EA80937400B9CF72
S1130C8020913C028091AD0230E090E0019728175A
S1130C903907DCF485EC80937400ABCFE091AA02B1
S1130CA0F091AB0280913C0221E0280F20933C029A
S1130CB0E80FF11D8091730080838091AD0230E0D4
S1130CC090E00197281739072CF385E88093740086
S1130CD090CF80917400817008959091740090FD7C
S1130CE0FCCF8E7F8093AC027093AB026093AA0218
S1130CF04093AD0285EA8093740008959091740046
S1130D0090FDFCCF81608093AC027093AB02609342
S1130D10AA024093AD0285EA8093740008958FEF90
S1130D2080937300109271008CE08093700008959A
S1130D3084E18093AE0241E06EEA72E082E20E94B6
S1130D406D060E9469068111FCCF8FEA94E0019739
S1130D50F1F700C0000041E060ED72E082E20E9421
S1130D607E060E9469068111FCCF8091D00208950D
S1130D70EEEAF2E080E28083118280911601909184
S1130D8017019283838314821092CF0245E0BF013E
S1130D9082E20C946D0680E48093AE021092AF025E
S1130DA080917502909176029093B0028093B10283
S1130DB01092B2021092B3021092CF0246E06EEA91
S1130DC072E082E20E946D068091CF028823E1F3F3
S1130DD00895EEEAF2E080E48083118280919F021C
S1130DE09091A00292838383148281E0858346E0FC
S1130DF0BF0182E20E946D062FEF87EE93E021503F
S1130E0080409040E1F700C00000089580912502E1
S1130E10909126028130910551F100F1029741F43D
S1130E2060919F027091A00281EA92E00E94580FA3
S1130E30609174028EE392E00E944B0F81E18093F3
S1130E40AE0241E06EEA72E082E20E946D0687ED36
S1130E5094E00197F1F700C0000008956091160135
S1130E60709117018FE392E00E94580FE1CF6091D7
S1130E7075027091760282E792E00E94580FD8CFF3
S1130E8083E28093AE0281E08093AF0242E06EEA97
S1130E9072E082E20E946D060E9469068111FCCF15
S1130EA08FEA94E00197F1F700C0000048E067EB97
S1130EB072E082E20E947E060E9469068111FCCFE4
S1130EC0089582E28093AE0281E08093AF0242E013
S1130ED06EEA72E082E20E946D060E946906811148
S1130EE0FCCF8FEA94E00197F1F700C0000048E0DE
S1130EF067EB72E082E20E947E060E94690681111D
S1130F00FCCF089582E48093AE0281E08093AF0227
S1130F1042E06EEA72E082E20E946D060E94690677
S1130F208111FCCF8FEA94E00197F1F700C0000033
S1130F3048E067EB72E082E20C947E0683E48093DF
S1130F40AE0281E08093AF0242E06EEA72E082E298
S1130F500E946D060E9469068111FCCF8FEA94E01D
S1130F600197F1F700C0000048E067EB72E082E20D
S1130F700C947E06EEEAF2E022E120831182928351
S1130F8083837483658346E0BF0182E20E946D0619
S1130F908FE39CE90197F1F700C0000008958FE307
S1130FA092E00E94450F90931701809316018EE3FF
S1130FB092E00E943D0F80937402EEEAF2E081E039
S1130FC0808380E5818385E0828343E0BF0182E200
S1130FD00E946D062FEF8BED95E0215080409040EC
S1130FE0E1F700C0000061E070E081E090E00C9463
S1130FF0BA0782E792E00E94450F909376028093AD
S113100075028EE392E00E943D0F80937402EEEA33
S1131010F2E081E0808381E5818385E0828343E09F
S1131020BF0182E20E946D062FEF8BED95E0215007
S113103080409040E1F700C0000061E070E081E092
S113104090E00C94BA0781EA92E00E94450F9093D5
S1131050A00280939F028EE392E00E943D0F809352
S11310607402EEEAF2E081E0808381E5818385E029
S1131070828343E0BF0182E20E946D062FEF8BED75
S113108095E0215080409040E1F700C0000060E00E
S113109070E082E093E30E94BA0761E071E082E0CD
S11310A091E30E94BA0761E070E081E090E00C9463
S11310B0BA0780E18093AE0241E06EEA72E082E218
S11310C00E946D060E9469068111FCCF8FEA94E0AC
S11310D00197F1F700C0000048E06FEB72E082E294
S11310E00E947E060E9469068111FCCF8EE191E088
S11310F00E945B0987E591E00E945B0980E991E029
S11311000E945B098091C0024AE062E472E090E0D0
S11311100E94080F82E492E00E945B098DE991E04D
S11311200E945B098091C1024AE062E472E090E0AF
S11311300E94080F82E492E00E945B098DE891E02E
S11311400C945B09FF920F931F93CF93DF93CDB75A
S1131150DEB7A8970FB6F894DEBF0FBECDBF8BEAFB
S113116091E00E945B098BEB91E00E945B0907EB25
S113117012E0F801808140E162E472E090E00E94B4
S1131180080F82E492E00E945B098DE891E00E94DE
S11311905B098BEC91E00E945B09F80181814AE0D4
S11311A062E472E090E00E94080F82E492E00E9400
S11311B05B098DE891E00E945B09F801F3808BEDF7
S11311C091E00E945B094AE062E472E08F2D90E0B6
S11311D00E94080F82E492E00E945B098DE891E08E
S11311E00E945B098BEE91E00E945B09F801828109
S11311F040E1BE016F5F7F4F90E00E94080FCE0177
S113120001960E945B098DE891E00E945B098BEFD7
S113121091E00E945B09F801838140E1BE016F5FA8
S11312207F4F90E00E94080FCE0101960E945B0957
S11312308DE891E00E945B098BE092E00E945B09DB
S1131240F801848140E162E472E090E00E94080FBA
S113125082E492E00E945B098DE891E00E945B09C0
S1131260A8960FB6F894DEBF0FBECDBFDF91CF9125
S11312701F910F91FF9008955D9BFECF8CB95D9BEC
S1131280FECF089590919B0095FFFCCF80939C0026
S113129080919B0085FFFCCF0895FC0190819923E8
S11312A049F031965D9BFECF9CB95D9BFECF919139
S11312B09111F8CF0895FC012081222371F0319619
S11312C090919B0095FFFCCF20939C0090919B00F4
S11312D095FFFCCF21912111F3CF08959C01FC01CE
S11312E04491442369F00196F90124915D9BFECF5A
S11312F02CB95D9BFECF9C01FC0144914111F3CFBD
S113130008958AB188698AB9E5E9F0E08081866048
S113131080831092900087E689B90895EAE9F0E0A5
S1131320808188618083EDE9F0E08081866080833C
S11313301092980087E680939900089580E89EE3D0
S113134002C0019721F05F9BFCCF8CB1089580E02F
S1131350089580E89EE302C0019739F020919B0034
S113136027FFFACF80919C00089580E0089591E0D2
S1131370811101C090E09FB9779BFECF6FB9779B35
S1131380FECF809162008860809362008091620049
S1131390877F809362000895CF93C0913D028C0FA4
S11313A0911DFC01608181E00E94B70981E08C0FEE
S11313B080933D02803181F0803211F0CF91089505
S11313C085ED8A95F1F7000060E880E00E94B70996
S11313D010923D02CF910895F5EDFA95F1F70000D2
S11313E060EC80E00E94B70980913D02E5CFEF9266
S11313F0FF920F931F93CF93DF931F92CDB7DEB766
S1131400182F660F660F660F605C80E099830E9458
S1131410B70985ED8A95F1F70000E12E9981F92E3F
S11314208701085F1F4FF70161917F0181E00E94EE
S1131430B709F5EDFA95F1F70000E016F10699F712
S11314400F90DF91CF911F910F91FF90EF9008952E
S113145090E4899F600D1124605C80E00C94B709CE
S1131460CF938823B9F1C82F843698F48A30D8F4FE
S11314708DECC89F812D11248695869586956C2FB9
S11314802AE0829F60191124605D81E0CF910C9461
S1131490B70969E2869F612D112462956F70605DC2
S11314A081E00E94B70989E2C89F812D11248295A9
S11314B08F709C2F24E6829F901911246DEC969FC7
S11314C0612D1124669566956695605D81E00E94A4
S11314D0B709CECF60E381E0CF910C94B709CF93E5
S11314E087FD03C0CF910C94300AC82F6DE281E0D0
S11314F00E94B70985ED8A95F1F700008C2F81953C
S1131500CF910C94300A6EE080E00C94B7096CE043
S113151080E00C94B7096EE180E00C94B70968E1AF
S113152080E00C94B709E2E6F0E080818860808373
S11315308081877F8083089561E080E00E94B709FD
S11315408FE19CE10197F1F700C00000089562E08B
S113155080E00E94B7098FE697E10197F1F700C098
S11315600000089560EC80E00C94B70960E880E026
S11315700C94B709CF93C0E160E281E00E94B709FF
S113158085ED8A95F1F70000C150B1F7CF91089528
S1131590682F81E00C94B7090F931F93CF938C01AC
S11315A040E050E0C0E0F801E40FF51F608181E005
S11315B00E94B70985ED8A95F1F70000CF5F4C2FA3
S11315C050E0F80101900020E9F79F01201B310B46
S11315D0225031092417350730F7CF911F910F910D
S11315E008958FEF99EF0197F1F700C0000088E0AC
S11315F08093610060E380E00E94B7098FE59DE677
S11316000197F1F700C0000060E380E00E94B70991
S11316108FE59DE60197F1F700C0000060E380E0EC
S11316200E94B7098FE59DE60197F1F700C000001D
S113163068E380E00E94B7098FE19EE40197F1F727
S113164000C0000068E080E00E94B7098FE19EE4DA
S11316500197F1F700C0000061E080E00E94B70943
S11316608FE19EE40197F1F700C0000066E080E09E
S11316700E94B7098FE19EE40197F1F700C00000D2
S11316806CE080E00E94B7098FE19EE40197F1F7D6
S113169000C0000008958F929F92AF92BF92CF92A4
S11316A0DF92EF92FF920F931F93CF93DF93CDB707
S11316B0DEB769970FB6F894DEBF0FBECDBFF42E28
S11316C0122F002359F04B015C018824B7FC83944A
S11316D09924AA24BB24082D97FD8FC0112309F453
S11316E084C09E012F5F3F4F6901590188248A9469
S11316F0810E912C3FEF831A930A8C0C9D1C2AE0D7
S113170030E040E050E00E949B0EE62F2A8B3B8B9A
S11317104C8B5D8B6A897B898C899D8920E32E0F94
S1131720F50121935F01E815F90549F7BB24B3944A
S1131730B10EF601E10FF11D2EE220832AE030E024
S113174040E050E00E949B0EE62F2A8B3B8B4C8B93
S11317505D8B6E8B7F8B888F998F6A897B898C894F
S11317609D8911E01B0DD601AB0DB11DE05DEC931D
S1131770B12E611571058105910501F7FF2061F016
S1131780E11039C080E21F1538F4F601E10FF11DB4
S113179080831F5F1F11F9CF002331F0F601E10FA1
S11317A0F11D8DE280831F5F1150F601E10FF11DE1
S11317B0608181E00E94B70935ED3A95F1F70000A8
S11317C01111F2CF69960FB6F894DEBF0FBECDBFEC
S11317D0DF91CF911F910F91FF90EF90DF90CF9009
S11317E0BF90AF909F908F900895B12C9E012F5F72
S11317F03F4F6901A3CF80E3C6CF90958095709544
S113180061957F4F8F4F9F4F69CF5F926F927F9209
S11318108F929F92AF92BF92CF92DF92EF92FF92FC
S11318200F931F93CF93DF93CDB7DEB761970FB6B6
S1131830F894DEBF0FBECDBFA62E542E622E792E95
S1131840771C7724771CB72CC72CD12CEE27FF27C5
S1131850EC19FD098E279F27FC01EC0DFD1D442387
S113186009F48EC0CE0101967C018C0188248A94EF
S1131870840E912C9FEF891A990A8E0C9F1C6AE0A2
S113188070E0CF010E94870E262FE22FF72F805D94
S1131890D8018D938D01A815B90589F701E0050DCF
S11318A0D701A50DB11D8EE28C936AE070E0CF01E3
S11318B00E94870E262FE22FF72F11E0100FD70179
S11318C0A00FB11D805D8C93012F309771F76110CB
S11318D015C0772039F011E0100FF701E00FF11D6A
S11318E08DE28083AA2041F1812F90E02A2D30E0FF
S11318F0821793070CF5B12C40E20CC0AA20A1F08A
S1131900812F90E02A2D30E02C193D09821793078E
S11319105CF440E31F5FF701E80FF91F4083812F58
S113192090E082179307B4F3BB2031F0F701E10F85
S1131930F11D8DE280831F5F1150F701E10FF11D4E
S1131940608181E00E94B70995ED9A95F1F7000056
S11319501111F2CF61960FB6F894DEBF0FBECDBF62
S1131960DF91CF911F910F91FF90EF90DF90CF9077
S1131970BF90AF909F908F907F906F905F900895ED
S113198000E0CE0101967C0190CF809161008860D7
S11319908093610081E881BB8FEF82B980918B00D5
S11319A0826C80938B0080918A00896180938A0085
S11319B010928C0080E090E99093870080938600D9
S11319C080E090EF90938100809380000E948109D1
S11319D00E943F020E94F10A0E948F060E94F704AF
S11319E01FBC8AE08EBD10927A0080E092E09BBD1D
S11319F08ABD87B7806187BF129A1A9A1F98179A6F
S1131A001A9A8FE193E00197F1F700C000001A9849
S1131A1090EA9A95F1F7179878940E94CF0786EB8D
S1131A2096E29093170180931601809161008F775D
S1131A3080936100809162008F778093620087B108
S1131A40876487B986B1876886B910925F0341E0DD
S1131A506FE573E080E90E946D060E949C0AC1E86C
S1131A60D0E04BE2C42E56E5D52E61E8E62E7CEAA2
S1131A70F72E07ED1FEF80912002853009F4E1C0B5
S1131A8042E061E673E080E90E947E068091610392
S1131A9090E0982F882720916203822B4AE06FE21E
S1131AA073E0880F892F881F990B91950E94080F66
S1131AB0369A349BFECF349A84B195B190937102D7
S1131AC0809370029C01255D33402A32310540F435
S1131AD085B5816685BD13BC8091700290917102B9
S1131AE09C012A5A33402A32310540F485B5816677
S1131AF085BDC3BC80917002909171029C012A57EC
S1131B0033402F32310540F485B5816685BDD3BCA1
S1131B1080917002909171029C01245533402532CA
S1131B20310540F485B5816685BDE3BC80917002C2
S1131B30909171029C01295233402A32310540F4BC
S1131B4085B5816685BDF3BC809170029091710268
S1131B508E5F92408A9720F485B5816685BD03BD6A
S1131B600E94DD010E94C1020E94B80080912002FF
S1131B708370813009F4BAC0C09AC0981ABA1BBBEA
S1131B800000000090912002892F8770B9F4209101
S1131B9022022A3009F482C00E949C0A8FE293E058
S1131BA00E94CC0A80911401909115010E94500268
S1131BB01092220290912002892F8770833009F4B9
S1131BC08CC0409112015091130120911401309165
S1131BD015014217530709F46DC0809122028A301F
S1131BE008F440C0892F8770833009F486C084309C
S1131BF009F43DC0863009F448C01ABB0000000057
S1131C0010922102E0E0F0E0E35FFE4F808188BBA8
S1131C10E0912102F0E0EC55FD4F80818BBB8FE910
S1131C209FE00197F1F700C00000E0912102EF5F0F
S1131C30E0932102E53038F380912002853009F0E9
S1131C401FCF60E080E00E94280AD0931301C09364
S1131C50120180911401909115010E94500200001C
S1131C6000000ECF892F8770843009F0C3CF809194
S1131C701601909117010E9450020E944503809121
S1131C8020028770863009F0B8CF0E94B8068FE929
S1131C909FE00197F1F700C00000AFCF409112011F
S1131CA050911301209114013091150142175307EB
S1131CB009F09ACF892F837009F08FCF0E949C0A74
S1131CC088E191E00E94CC0A809114019091150161
S1131CD00E94C5039091200280CF809114019091BD
S1131CE015010E945002909120026BCF8091120145
S1131CF0909113010E9439043FCF80911401909177
S1131D0015010E94500280912002877070CF97FBCA
S1131D10072E16F4009407D077FD09D00E94D20E46
S1131D2007FC05D03EF4909581959F4F08957095DA
S1131D3061957F4F0895052E97FB1EF400940E9431
S1131D40B20E57FD07D00E94E60E07FC03D04EF4F6
S1131D500C94B20E50954095309521953F4F4F4FBE
S1131D605F4F089590958095709561957F4F8F4F43
S1131D709F4F0895EE0FFF1F0024001C0BBE079019
S1131D80F691E02D0994A29FB001B39FC001A39FD7
S1131D90700D811D1124911DB29F700D811D1124A0
S1131DA0911D0895AA1BBB1B51E107C0AA1FBB1FAD
S1131DB0A617B70710F0A61BB70B881F991F5A95D3
S1131DC0A9F780959095BC01CD010895A1E21A2E42
S1131DD0AA1BBB1BFD010DC0AA1FBB1FEE1FFF1FCB
S1131DE0A217B307E407F50720F0A21BB30BE40B1B
S1131DF0F50B661F771F881F991F1A9469F7609562
S1131E007095809590959B01AC01BD01CF0108951B
S1131E10BB274A3031F4992322F4BDE29095819591
S1131E209F4F0C94140FBB27FB015527AA27880F3B
S1131E30991FAA1FA41710F0A41B83955051B9F73A
S1131E40A05DAA3308F0A95DA193009779F7B111B9
S1131E50B1931192CB010C942D0FDC01FC01672F7F
S1131E6071917723E1F7329704C07C916D9370836D
S1131E706291AE17BF07C8F30895E199FECF9FBBE7
S1131E808EBBE09A99278DB30895A8E1B0E042E0B3
S1131E9050E00C945F0F262FE199FECF9FBB8EBBC1
S1131EA02DBB0FB6F894E29AE19A0FBE01960895FD
S1131EB00E944B0F272F0C944C0FDC01CB01FC012B
S1131EC0E199FECF06C0FFBBEEBBE09A31960DB29E
S1111ED00D9241505040B8F70895F894FFCF9A
S1131EDE039F250D9949411F010920FF0000102081
S1131EEE304083008200B626414C41524D00536966
S1131EFE34373334205265763A20206C6173742063
S1131F0E3220646967697473206F6620706172741D
S1131F1E206E6F2E202020636869702072657620F3
S1131F2E202020200A0D00202020202020202020E8
S1131F3E202020202D2D2D2D2D2D2D2D2D2D2D2DF3
S1131F4E2D2D2D2D2D2D2D2D2D2D2D2D2D202020D6
S1131F5E2D2D2D2D2D2D2D2D20202020200A0D0050
S1131F6E202020202020202020202020202020205F
S1131F7E2020202020202020202000464D5F525378
S1131F8E515F5354415455533A2000737461747520
S1131F9E7320627974652020203A00726573703163
S1131FAE2020202020202020203A006672657120F7
S1131FBE2020202020202020203A006672657120E7
S1131FCE6869676820202020203A006672657120B7
S1131FDE6C6F772020202020203A007273736920C2
S10F1FEE2020202020202020203A000089
S9030000FC
