:100000000C9497000C94B6000C94B6000C94B600B7
:100010000C94B6000C94B6000C94B6000C94B60088
:100020000C94B6000C94B6000C94B6000C94B60078
:100030000C9400070C94B6000C94B6000C94B60017
:100040000C948B060C94B6000C945B060C94B600D2
:100050000C94B6000C94B6000C94B6000C94B60048
:100060000C94B6000C94B6000C94B6000C94B60038
:100070000C94B6000C94B6000C94B6000C94B60028
:100080000C94B6000C942C070C94B6006D07440732
:100090004407440744074407440744076D074407DF
:1000A00044074407440744074407440777074407C5
:1000B00044074407440744074407440744074407E8
:1000C00044074407440744074407440777074407A5
:1000D00044074407440744074407440744074407C8
:1000E0004407440744074407440744078E0744076E
:1000F000440744074407440744074407920744075A
:100100004407440744074407440744074407440797
:10011000440744074407440744074407A00744072B
:100120004407440744074407440744075E07112473
:100130001FBECFEFD0E1DEBFCDBF12E0A0E0B1E047
:10014000E4ECF1E200E00BBF02C007900D92AE318B
:10015000B107D9F723E0AEE1B2E001C01D92A736A6
:10016000B207E1F70E94100E0C94E0100C9400000E
:1001700080911501909116018C33910509F485C089
:10018000803A910509F443C0843021E0920709F0D8
:10019000BAC08CE291E090931601809315018439E6
:1001A00022E0920709F0B9C08CEB92E0909316011F
:1001B00080931501843224E0920709F0B8C08CE4E2
:1001C00094E09093160180931501843B25E09207FB
:1001D00009F0B7C08CED95E090931601809315015E
:1001E000843427E0920709F0B6C08CE697E090933C
:1001F000160180931501843D28E0920709F0B5C0EF
:100200008CEF98E09093160180931501089588EC87
:1002100090E09093160180931501803322E09207BD
:1002200009F0BDCF88E592E0909316018093150107
:10023000803C23E0920709F0BDCF88EE93E09093D5
:10024000160180931501803525E0920709F0BDCF96
:1002500088E795E09093160180931501803E26E093
:10026000920709F0BDCF88E097E090931601809344
:100270001501803728E0920709F0BDCF88E998E0A2
:100280009093160180931501089584E690E0909371
:100290001601809315018C3C21E0920709F0BDCF37
:1002A00084EF91E090931601809315018C3523E043
:1002B000920709F0BDCF84E893E0909316018093F4
:1002C00015018C3E24E0920709F0BDCF84E195E052
:1002D00090931601809315018C3726E0920709F060
:1002E000BDCF84EA96E090931601809315018C307F
:1002F00028E0920709F0BDCF84E398E090931601BF
:10030000809315010895883621E0920721F680E94F
:1003100091E09093160180931501883F22E09207A7
:1003200029F680E293E090931601809315018838B6
:1003300024E0920731F680EB94E0909316018093CD
:100340001501883126E0920739F680E496E0909313
:10035000160180931501883A27E0920741F680ED57
:1003600097E090931601809315018833994021F40A
:1003700010921601109215010895482FE82FF0E011
:1003800099B3EE0FFF1FE05DFD4F20813181220FF9
:10039000331F306E892F90E002C0959587954A955E
:1003A000E2F781709927282B392B3183208381E054
:1003B0002115304F09F080E00895E1E6F0E08081FA
:1003C00088608083E2E6F0E08081877F808387EF2A
:1003D00087BB8DB180658DB9709A08950F931F9377
:1003E000CF93DF93EC0164E670E00E94FA0FCB013B
:1003F0000AE010E0B8010E94FA0FFC01CE0168EE9D
:1004000073E00E94FA0FCB01B8010E94FA0F9C0121
:10041000CE01B8010E94FA0FDC01BB27A050BF4FEC
:100420008C918093A802CB01B8010E94FA0FDC01E5
:10043000BB27A050BF4F8C918093A90280912502C9
:1004400080FD22C080910A018093AA02FF27E0501C
:10045000FF4F80818093AB023327F901E050FF4FBB
:1004600080818093AC02CA30D105ECF0C436D1054E
:1004700084F0C83ED3401CF48FEF8093AC02DF9130
:10048000CF911F910F91089580910B018093AA0243
:10049000DDCF8FEF8093AB028093AC02DF91CF91E1
:1004A0001F910F9108958FEF8093A9028093AB0263
:1004B0008093AC02DF91CF911F910F9108958FEF40
:1004C00082B91D9A000000001E98000000001E9ACC
:1004D0001D98909120028091220283708130B1F0AA
:1004E000823009F008959C7080912E02843001F1D1
:1004F000C8F0883011F08C3011F490932E022091C6
:10050000150130911601C9010C94EE01292F2370B9
:1005100080912F028130B9F040F0823031F0833089
:1005200021F00895882349F3EACF20932F020895FC
:100530009C3099F1992371F02091150130911601A9
:1005400090932E02E0CF233091F0222399F1209353
:100550002F02C6CF80912102209115013091160102
:10056000281B31093093160120931501E9CF8091A2
:1005700021024091130150911401480F511D5093D5
:10058000140140931301EFE3FFE13197F1F700C04D
:100590000000809122028370DACF809121022091A5
:1005A000150130911601280F311D3093160120934B
:1005B0001501C6CF80912102409113015091140181
:1005C000481B5109DCCF8FEF82B91D9A0000000053
:1005D0001E98000000001E9A1D9890912002292F5D
:1005E000237080912D02813001F120F0823011F0D2
:1005F000833011F420932D02809122028370823087
:1006000009F008959C7080912C02843031F110F132
:10061000883011F08C3011F490932C022091150148
:1006200030911601C9010C94EE01233009F121111A
:10063000E1CF409117015091180144515109509355
:10064000180140931701EFE3FFE13197F1F700C084
:100650000000D0CF882301F3E1CF9C3039F19923FA
:10066000C1F0209115013091160190932C02DACF40
:1006700040911701509118014C5E5F4F5093180143
:1006800040931701EFE3FFE13197F1F700C000005D
:10069000B1CF809121022091150130911601281BC4
:1006A00031093093160120931501DFCF809121028B
:1006B0002091150130911601280F311D309316013C
:1006C00020931501D2CF8FEF82B91D9A0000000050
:1006D0001E98000000001E9A1D9890912002292F5C
:1006E000237080912B02813001F120F0823011F0D3
:1006F000833011F420932B02809122028370823088
:1007000009F008959C7080912A02843029F108F143
:10071000883011F08C3011F490932A022091150149
:1007200030911601C9010C94EE01233001F1211121
:10073000E1CF40918600509187005E5F5093870023
:1007400040938600EFE3FFE13197F1F700C000002E
:10075000D1CF882309F3E2CF9C3031F19923B9F04E
:10076000209115013091160190932A02DBCF409120
:100770008600509187005250509387004093860026
:10078000EFE3FFE13197F1F700C00000B3CF8091B4
:1007900021022091150130911601281B3109309357
:1007A000160120931501E0CF8091210220911501BF
:1007B00030911601280F311D309316012093150139
:1007C000D3CFFF920F931F93CF93DF9388B38067AC
:1007D00088BB00E312E0C0E0D0E0FF24F39415C032
:1007E00080912202982F937019F4789480912202BC
:1007F0008770813009F457C08230E1F1843009F408
:1008000055C02196C830D105E9F14C2F4F5F99B3FF
:10081000F80120813181220F331F306E892F90E043
:100820000C2E02C0959587950A94E2F7817099275E
:10083000282B392BF8013183208389B390E00C2ECB
:1008400002C0959587950A94E2F781709927906E7A
:10085000220F331F822B932BF801819391938F01E9
:100860008115904F09F0BCCF80912202842780939C
:100870002202B8CFF0922102109225022196C830B0
:10088000D10519F688B388BB809122028FB9779B76
:10089000FECF8FB18093200280E0DF91CF911F9136
:1008A0000F91FF90089580932102ABCF0E946303C4
:1008B000A8CF0F931F93CF93DF93EC0164E670E012
:1008C0000E94FA0FCB010AE010E0B8010E94FA0F73
:1008D000FC01CE0168EE73E00E94FA0FCB01B80173
:1008E0000E94FA0F9C01CE01B8010E94FA0FDC01B0
:1008F000BB27A050BF4F8C9180936E02CB01B801F3
:100900000E94FA0FDC01BB27A050BF4F8C9180934F
:100910006F028091250280FD25C080910C0180939B
:10092000AA02FF27E050FF4F808180937102332796
:10093000F901E050FF4F8081809372028091150190
:10094000909116010A97E8F0C436D10584F0C83EAC
:10095000D3401CF48FEF80937202DF91CF911F91EF
:100960000F91089580910B018093AA02DACF8FEF47
:100970008093710280937202DF91CF911F910F914A
:1009800008958FEF80936F028093710280937202BB
:10099000DF91CF911F910F910895CF93DF93EC01D9
:1009A0009C01ADECBCEC0E943610AC01569547950D
:1009B00056954795569547959A01220F331FCA01C0
:1009C000880F991F880F991F880F991F820F931FF7
:1009D000FE01E81BF90BE050FF4F80818093A802D5
:1009E0009A010E94361096958795969587959695CB
:1009F00087959C01220F331F880F991F880F991F1D
:100A0000880F991F820F931F481B590BFA01E05062
:100A1000FF4F80818093A90280910A018093AA02EE
:100A20009E013695279536952795ABE7B4E10E9450
:100A30003610AC01569547959A01ADECBCEC0E947E
:100A400036109695879596958795969587959C01EE
:100A5000220F331F880F991F880F991F880F991F26
:100A6000820F931F481B590BFA01E050FF4F808102
:100A70008093AB029E01369527953695279536953E
:100A80002795A5ECB0E20E943610AC015295429534
:100A90004F7045275F7045279A01ADECBCEC0E9472
:100AA00036109695879596958795969587959C018E
:100AB000220F331F880F991F880F991F880F991FC6
:100AC000820F931F481B590BFA01E050FF4F8081A2
:100AD0008093AC02CA30D105A0F0C436D10548F0ED
:100AE000C83ED34018F48FEF8093AC02DF91CF91D2
:100AF00008958FEF8093AB028093AC02DF91CF918A
:100B000008958FEF8093A9028093AB028093AC028B
:100B1000DF91CF910895CF93DF93EC019C01ADEC71
:100B2000BCEC0E943610AC015695479556954795FA
:100B3000569547959A01220F331FCA01880F991FB6
:100B4000880F991F880F991F820F931FFE01E81BC2
:100B5000F90BE050FF4F80818093A8029A010E9418
:100B600036109695879596958795969587959C01CD
:100B7000220F331F880F991F880F991F880F991F05
:100B8000820F931F481B590BFA01E050FF4F8081E1
:100B90008093A90280910D018093AA029E0136954F
:100BA000279536952795ABE7B4E10E943610AC0146
:100BB000569547959A01ADECBCEC0E94361096957F
:100BC000879596958795969587959C01220F331F5B
:100BD000880F991F880F991F880F991F820F931FE5
:100BE000481B590BFA01E050FF4F80818093AB0204
:100BF0009E01369527953695279536952795A5EC30
:100C0000B0E20E943610AC01529542954F704527D4
:100C10005F7045279A01ADECBCEC0E9436109695AA
:100C2000879596958795969587959C01220F331FFA
:100C3000880F991F880F991F880F991F820F931F84
:100C4000481B590BFA01E050FF4F80818093AC02A2
:100C5000CA30D105A0F0C436D10548F0C83ED34013
:100C600018F48FEF8093AC02DF91CF9108958FEF4E
:100C70008093AB028093AC02DF91CF9108958FEF08
:100C80008093A9028093AB028093AC02DF91CF9155
:100C9000089580B7886080BF81E083BF00B602FC02
:100CA000FDCF00B601FCFDCF00B600FCFDCF87B73D
:100CB000816087BF08951F920F920FB60F92112483
:100CC0000BB60F922F933F934F935F936F937F9346
:100CD0008F939F93AF93BF93EF93FF938CB18093C8
:100CE000A70290912202953099F0FF91EF91BF9168
:100CF000AF919F918F917F916F915F914F913F91B4
:100D00002F910F900BBE0F900FBE0F901F90189554
:100D10000E94130CEACF1F920F920FB60F9211246C
:100D20008F939F93809129028F5F809329028F7701
:100D300059F4809125028F5F809325028C33B9F09E
:100D400080912202833039F09F918F910F900FBED6
:100D50000F901F901895809124028F5F809324023A
:100D60009F918F910F900FBE0F901F9018958091BB
:100D7000150190911601019690931601809315012B
:100D800010922502809122028330F1F6E4CFC09ABE
:100D9000C098089585B5816685BD13BC089585B555
:100DA000816685BD8BE283BD089585B5816685BD6D
:100DB00086E583BD089585B5816685BD81E883BDDF
:100DC000089585B5816685BD8CEA83BD089585B596
:100DD000816685BD87ED83BD089585B5816685BD36
:100DE00080EE83BD08951FBC8AE08EBD10927A000C
:100DF00080E092E09BBD8ABD87B7806187BF089580
:100E00001F920F920FB60F9211242F933F938F933F
:100E10009F932091130130911401809115019091BD
:100E200016012817390781F0809124028A3018F0C2
:100E300082B3805882BB9F918F913F912F910F90E9
:100E40000FBE0F901F90189580912202837061F75A
:100E500082B3805882BBE8CF1F920F920FB60F92D9
:100E600011240BB60F922F933F938F939F93AF93C1
:100E7000BF93EF93FF93E09171008E2F90E0FC0100
:100E80003897E135F105B0F0809171008093AD02A3
:100E900084E080937400FF91EF91BF91AF919F9197
:100EA0008F913F912F910F900BBE0F900FBE0F901F
:100EB0001F901895EA5BFF4F0C942D108091400213
:100EC000E091AE02F091AF02E80FF11D8091730046
:100ED000808384E980937400DECF8091B002809398
:100EE00073001092400285E880937400D4CF809103
:100EF00040029091B102891760F7E091AE02F09143
:100F0000AF0291E0980F90934002E80FF11D8081AD
:100F10008093730085E880937400BDCF85EA809349
:100F20007400B9CF209140028091B10230E090E08E
:100F3000019728173907DCF485EC80937400ABCF58
:100F4000E091AE02F091AF028091400221E0280FC3
:100F500020934002E80FF11D8091730080838091FF
:100F6000B10230E090E00197281739072CF385E8AB
:100F70008093740090CF8091740081700895909157
:100F8000740090FDFCCF8E7F8093B0027093AF020F
:100F90006093AE024093B10285EA80937400089595
:100FA0009091740090FDFCCF81608093B0027093AB
:100FB000AF026093AE024093B10285EA8093740061
:100FC00008958FEF80937300109271008CE08093EE
:100FD0007000089584E18093B20241E062EB72E018
:100FE00082E20E94BF070E94BB078111FCCF8FEAFB
:100FF00094E00197F1F700C0000041E064ED72E079
:1010000082E20E94D0070E94BB078111FCCF809131
:10101000D4020895E2EBF2E080E2808311828091B5
:101020001701909118019283838314821092D30246
:1010300045E0BF0182E20C94BF0780E48093B202D6
:101040001092B3028091790290917A029093B40247
:101050008093B5021092B6021092B7021092D3029A
:1010600046E062EB72E082E20E94BF078091D30209
:101070008823E1F30895E2EBF2E080E480831182BB
:101080008091A3029091A40292838383148281E0D1
:10109000858346E0BF0182E20E94BF072FEF87EE03
:1010A00093E0215080409040E1F700C00000089597
:1010B00080912702909128028130910519F1C8F0A2
:1010C000029741F46091A3027091A40285EA92E034
:1010D0000E94CB106091780282E492E00E94BE10E0
:1010E00081E18093B20241E062EB72E082E20C9413
:1010F000BF07609117017091180183E492E00E948C
:10110000CB10E8CF6091790270917A0286E792E085
:101110000E94CB10DFCF83E28093B20281E0809304
:10112000B30242E062EB72E082E20E94BF070E94DB
:10113000BB078111FCCF8FEA94E00197F1F700C063
:10114000000048E06BEB72E082E20E94D0070E9450
:10115000BB078111FCCF089582E28093B20281E047
:101160008093B30242E062EB72E082E20E94BF072A
:101170000E94BB078111FCCF8FEA94E00197F1F741
:1011800000C0000048E06BEB72E082E20E94D007F2
:101190000E94BB078111FCCF089582E48093B202C4
:1011A00081E08093B30242E062EB72E082E20E944F
:1011B000BF070E94BB078111FCCF8FEA94E0019723
:1011C000F1F700C0000048E06BEB72E082E20C94A3
:1011D000D00783E48093B20281E08093B30242E0BF
:1011E00062EB72E082E20E94BF070E94BB0781119E
:1011F000FCCF8FEA94E00197F1F700C0000048E0CF
:101200006BEB72E082E20C94D007E2EBF2E022E1B9
:1012100020831182928383837483658346E0BF01B8
:1012200082E20E94BF078FE39CE90197F1F700C0BB
:101230000000089583E492E00E94B8109093180192
:101240008093170182E492E00E94B01080937802AC
:10125000E2EBF2E081E0808380E5818385E08283B8
:1012600043E0BF0182E20E94BF072FEF8BED95E0C4
:10127000215080409040E1F700C0000061E070E044
:1012800081E090E00C94050986E792E00E94B81096
:1012900090937A028093790282E492E00E94B010E7
:1012A00080937802E2EBF2E081E0808381E5818344
:1012B00085E0828343E0BF0182E20E94BF072FEFF7
:1012C0008BED95E0215080409040E1F700C0000098
:1012D00061E070E081E090E00C94050985EA92E01D
:1012E0000E94B8109093A4028093A30282E492E03B
:1012F0000E94B01080937802E2EBF2E081E08083FC
:1013000081E5818385E0828343E0BF0182E20E9420
:10131000BF072FEF8BED95E0215080409040E1F723
:1013200000C0000060E070E082E093E30E940509E5
:1013300061E071E082E091E30E94050961E070E004
:1013400081E090E00C94050980E18093B20241E0D5
:1013500062EB72E082E20E94BF070E94BB0781112C
:10136000FCCF8FEA94E00197F1F700C0000048E05D
:1013700063EC72E082E20E94D0070E94BB078111F9
:10138000FCCF81E291E00E94A60A8AE591E00E94EA
:10139000A60A83E991E00E94A60A8091C4024AE06D
:1013A00066E472E090E00E947B1086E492E00E9486
:1013B000A60A80EA91E00E94A60A8091C5024AE04E
:1013C00066E472E090E00E947B1086E492E00E9466
:1013D000A60A80E991E00C94A60AFF920F931F934E
:1013E000CF93DF93CDB7DEB7A8970FB6F894DEBFE3
:1013F0000FBECDBF8EEA91E00E94A60A8EEB91E06F
:101400000E94A60A0BEB12E0F801808140E166E43D
:1014100072E090E00E947B1086E492E00E94A60AAF
:1014200080E991E00E94A60A8EEC91E00E94A60A53
:10143000F80181814AE066E472E090E00E947B104E
:1014400086E492E00E94A60A80E991E00E94A60A42
:10145000F801F3808EED91E00E94A60A4AE066E46E
:1014600072E08F2D90E00E947B1086E492E00E9453
:10147000A60A80E991E00E94A60A8EEE91E00E9401
:10148000A60AF801828140E1BE016F5F7F4F90E0C4
:101490000E947B10CE0101960E94A60A80E991E08D
:1014A0000E94A60A8EEF91E00E94A60AF8018381AD
:1014B00040E1BE016F5F7F4F90E00E947B10CE0144
:1014C00001960E94A60A80E991E00E94A60A8EE099
:1014D00092E00E94A60AF801848140E166E472E08D
:1014E00090E00E947B1086E492E00E94A60A80E9C8
:1014F00091E00E94A60AA8960FB6F894DEBF0FBE30
:10150000CDBFDF91CF911F910F91FF9008955D9B0B
:10151000FECF8CB95D9BFECF089590919B0095FF07
:10152000FCCF80939C0080919B0085FFFCCF0895A9
:10153000FC019081992349F031965D9BFECF9CB9C7
:101540005D9BFECF91919111F8CF0895FC01208110
:10155000222371F0319690919B0095FFFCCF209350
:101560009C0090919B0095FFFCCF21912111F3CF1E
:1015700008959C01FC014491442369F00196F9010E
:1015800024915D9BFECF2CB95D9BFECF9C01FC019D
:1015900044914111F3CF08958AB188698AB9E5E988
:1015A000F0E08081866080831092900087E689B9A0
:1015B0000895EAE9F0E0808188618083EDE9F0E058
:1015C0008081866080831092980087E680939900DE
:1015D000089580E89EE302C0019721F05F9BFCCF55
:1015E0008CB1089580E0089580E89EE302C00197E1
:1015F00039F020919B0027FFFACF80919C0008953D
:1016000080E0089591E0811101C090E09FB9779B3F
:10161000FECF6FB9779BFECF809162008860809388
:10162000620080916200877F809362000895CF936B
:10163000C09141028C0F911DFC01608181E00E94EC
:10164000020B81E08C0F80934102803181F0803267
:1016500011F0CF91089585ED8A95F1F7000060E8CB
:1016600080E00E94020B10924102CF910895F5EDA7
:10167000FA95F1F7000060EC80E00E94020B809187
:101680004102E5CFEF92FF920F931F93CF93DF9329
:101690001F92CDB7DEB7182F660F660F660F605C1E
:1016A00080E099830E94020B85ED8A95F1F7000096
:1016B000E12E9981F92E8701085F1F4FF701619193
:1016C0007F0181E00E94020BF5EDFA95F1F7000031
:1016D000E016F10699F70F90DF91CF911F910F91CE
:1016E000FF90EF90089590E4899F600D1124605C55
:1016F00080E00C94020BCF938823B9F1C82F843675
:1017000098F48A30D8F48DECC89F812D11248695E9
:10171000869586956C2F2AE0829F60191124605D62
:1017200081E0CF910C94020B69E2869F612D112418
:1017300062956F70605D81E00E94020B89E2C89F34
:10174000812D112482958F709C2F24E6829F901901
:1017500011246DEC969F612D112466956695669512
:10176000605D81E00E94020BCECF60E381E0CF910B
:101770000C94020BCF9387FD03C0CF910C947B0B8D
:10178000C82F6DE281E00E94020B85ED8A95F1F78A
:1017900000008C2F8195CF910C947B0B6EE080E044
:1017A0000C94020B6CE080E00C94020B6EE180E084
:1017B0000C94020B68E180E00C94020BE2E6F0E08E
:1017C0008081886080838081877F8083089561E045
:1017D00080E00E94020B8FE19CE10197F1F700C0CD
:1017E0000000089562E080E00E94020B8FE697E11E
:1017F0000197F1F700C00000089560EC80E00C94C0
:10180000020B60E880E00C94020BCF93C0E160E231
:1018100081E00E94020B85ED8A95F1F70000C1502E
:10182000B1F7CF910895682F81E00C94020B0F93CC
:101830001F93CF938C0140E050E0C0E0F801E40F2B
:10184000F51F608181E00E94020B85ED8A95F1F71A
:101850000000CF5F4C2F50E0F80101900020E9F725
:101860009F01201B310B225031092417350730F717
:10187000CF911F910F9108958FEF99EF0197F1F795
:1018800000C0000088E08093610060E380E00E9477
:10189000020B8FE59DE60197F1F700C0000060E3C1
:1018A00080E00E94020B8FE59DE60197F1F700C0F2
:1018B000000060E380E00E94020B8FE59DE6019747
:1018C000F1F700C0000068E380E00E94020B8FE1A6
:1018D0009EE40197F1F700C0000068E080E00E94FC
:1018E000020B8FE19EE40197F1F700C0000061E078
:1018F00080E00E94020B8FE19EE40197F1F700C0A7
:10190000000066E080E00E94020B8FE19EE40197F8
:10191000F1F700C000006CE080E00E94020B8FE154
:101920009EE40197F1F700C0000008958F929F9206
:10193000AF92BF92CF92DF92EF92FF920F931F93DD
:10194000CF93DF93CDB7DEB769970FB6F894DEBFBC
:101950000FBECDBFF42E122F002359F04B015C01B6
:101960008824B7FC83949924AA24BB24082D97FDCE
:101970008FC0112309F484C09E012F5F3F4F69017E
:10198000590188248A94810E912C3FEF831A930A7F
:101990008C0C9D1C2AE030E040E050E00E940E10CC
:1019A000E62F2A8B3B8B4C8B5D8B6A897B898C89DC
:1019B0009D8920E32E0FF50121935F01E815F905BC
:1019C00049F7BB24B394B10EF601E10FF11D2EE2ED
:1019D00020832AE030E040E050E00E940E10E62F25
:1019E0002A8B3B8B4C8B5D8B6E8B7F8B888F998F7B
:1019F0006A897B898C899D8911E01B0DD601AB0D0D
:101A0000B11DE05DEC93B12E611571058105910565
:101A100001F7FF2061F0E11039C080E21F1538F4B2
:101A2000F601E10FF11D80831F5F1F11F9CF002325
:101A300031F0F601E10FF11D8DE280831F5F11503F
:101A4000F601E10FF11D608181E00E94020B35ED8E
:101A50003A95F1F700001111F2CF69960FB6F8949C
:101A6000DEBF0FBECDBFDF91CF911F910F91FF90D1
:101A7000EF90DF90CF90BF90AF909F908F900895A0
:101A8000B12C9E012F5F3F4F6901A3CF80E3C6CFEA
:101A900090958095709561957F4F8F4F9F4F69CF3F
:101AA0005F926F927F928F929F92AF92BF92CF92EE
:101AB000DF92EF92FF920F931F93CF93DF93CDB7F7
:101AC000DEB761970FB6F894DEBF0FBECDBFA62E6E
:101AD000542E622E792E771C7724771CB72CC72CB6
:101AE000D12CEE27FF27EC19FD098E279F27FC013B
:101AF000EC0DFD1D442309F48EC0CE0101967C013E
:101B00008C0188248A94840E912C9FEF891A990A5B
:101B10008E0C9F1C6AE070E0CF010E94FA0F262F06
:101B2000E22FF72F805DD8018D938D01A815B9059F
:101B300089F701E0050DD701A50DB11D8EE28C934B
:101B40006AE070E0CF010E94FA0F262FE22FF72FF4
:101B500011E0100FD701A00FB11D805D8C93012FF4
:101B6000309771F7611015C0772039F011E0100F30
:101B7000F701E00FF11D8DE28083AA2041F1812F52
:101B800090E02A2D30E0821793070CF5B12C40E24B
:101B90000CC0AA20A1F0812F90E02A2D30E02C1952
:101BA0003D09821793075CF440E31F5FF701E80FDC
:101BB000F91F4083812F90E082179307B4F3BB2075
:101BC00031F0F701E10FF11D8DE280831F5F1150AD
:101BD000F701E10FF11D608181E00E94020B95ED9C
:101BE0009A95F1F700001111F2CF61960FB6F894B3
:101BF000DEBF0FBECDBFDF91CF911F910F91FF9040
:101C0000EF90DF90CF90BF90AF909F908F907F909C
:101C10006F905F90089500E0CE0101967C0190CF17
:101C20008091610088608093610081E881BB8FEFC3
:101C300082B980918B00826C80938B0080918A00A6
:101C4000896180938A0010928C0080E090E99093E3
:101C500087008093860080E090EF909381008093CE
:101C600080000E94CC0A0E94DD010E943C0C0E9470
:101C7000E1070E9449061FBC8AE08EBD10927A00DF
:101C800080E092E09BBD8ABD87B7806187BF789472
:101C9000129A1A9A1F98179A1A9A8FE193E001974D
:101CA000F1F700C000001A9890EA9A95F1F717989A
:101CB0000E941A0986EB96E290931801809317010F
:101CC000809161008F7780936100809162008F77AF
:101CD0008093620087B1876487B986B1876886B9C7
:101CE0001092630341E063E673E080E90E94BF075E
:101CF0000E94E70BC1E8D0E06BE2C62E76E5D72E56
:101D0000E1E8EE2EFCEAFF2E07ED1FEF80912202A4
:101D1000853009F4E3C042E065E673E080E90E94A3
:101D2000D0078091650390E0982F88272091660363
:101D3000822B4AE063E373E0880F892F881F990B99
:101D400091950E947B10369A349BFECF349A84B1D1
:101D500095B190937502809374029C01255D334088
:101D60002A32310540F485B5816685BD13BC80916A
:101D70007402909175029C012A5A33402A3231052F
:101D800040F485B5816685BDC3BC80917402909195
:101D900075029C012A5733402F32310540F485B536
:101DA000816685BDD3BC80917402909175029C01BF
:101DB000245533402532310540F485B5816685BD13
:101DC000E3BC80917402909175029C0129523340CA
:101DD0002A32310540F485B5816685BDF3BC80911A
:101DE0007402909175028E5F92408A9720F485B5B7
:101DF000816685BD03BD0E94E1030E945F020E94CF
:101E0000B800809122028370813009F4D7C0C09A53
:101E1000C0981ABA1BBB0000000080912202982FC4
:101E20009770B9F4909124029A3009F4A8C00E94E6
:101E3000E70B83E393E00E94170C809115019091CA
:101E400016010E94EE011092240280912202982F26
:101E50009770933009F4B9C0409113015091140167
:101E600020911501309116014217530709F493C0D0
:101E7000909124029A3028F0982F9770933009F4AB
:101E8000B0C083FD3CC08770863009F45BC08730EA
:101E900009F46EC01ABB0000000010922302E0E0BB
:101EA000F0E0E25FFE4F808188BBE0912302F0E02A
:101EB000E855FD4F80818BBB8FE99FE00197F1F7DB
:101EC00000C00000E0912302EF5FE0932302E530C1
:101ED00038F380912202853009F01DCF60E080E068
:101EE0000E94730BD0931401C093130180911501CC
:101EF000909116010E94EE01000000000CCF20918D
:101F0000170130911801ADECBCEC0E94361096958B
:101F1000879596958795969587950E948B050E9443
:101F2000E302809122028C3009F458C08FE891E0DE
:101F30000197F1F700C0000080912202877086307F
:101F400009F0A5CF80911701909118010E94EE0130
:101F50000E94E3020E940A088FE99FE00197F1F7CF
:101F600000C00000809122028770873009F092CF74
:101F70000E9458080E941A09109222028BCF4091A9
:101F8000130150911401209115013091160142174F
:101F9000530709F076CF982F937009F069CF0E940C
:101FA000E70B8BE191E00E94170C80911501909155
:101FB00016010E945904809122025ACF8091130188
:101FC000909114010E94CD0422CF8091150190912F
:101FD00016010E94EE01809122023ECF1092220251
:101FE000A5CF80911501909116010E94EE0180917C
:101FF000220247CF97FB072E16F4009407D077FDF7
:1020000009D00E94451007FC05D03EF490958195BB
:102010009F4F0895709561957F4F0895052E97FB0A
:102020001EF400940E94251057FD07D00E945910FD
:1020300007FC03D04EF40C94251050954095309534
:1020400021953F4F4F4F5F4F089590958095709524
:1020500061957F4F8F4F9F4F0895EE0FFF1F002414
:10206000001C0BBE0790F691E02D0994A29FB001D1
:10207000B39FC001A39F700D811D1124911DB29FBC
:10208000700D811D1124911D0895AA1BBB1B51E1E8
:1020900007C0AA1FBB1FA617B70710F0A61BB70BD8
:1020A000881F991F5A95A9F780959095BC01CD017D
:1020B0000895A1E21A2EAA1BBB1BFD010DC0AA1F89
:1020C000BB1FEE1FFF1FA217B307E407F50720F0A1
:1020D000A21BB30BE40BF50B661F771F881F991F1C
:1020E0001A9469F760957095809590959B01AC0165
:1020F000BD01CF010895BB274A3031F4992322F462
:10210000BDE2909581959F4F0C948710BB27FB01F2
:102110005527AA27880F991FAA1FA41710F0A41BE0
:1021200083955051B9F7A05DAA3308F0A95DA1933A
:10213000009779F7B111B1931192CB010C94A010D3
:10214000DC01FC01672F71917723E1F7329704C01E
:102150007C916D9370836291AE17BF07C8F30895A9
:10216000E199FECF9FBB8EBBE09A99278DB308956E
:10217000A8E1B0E042E050E00C94D210262FE199A3
:10218000FECF9FBB8EBB2DBB0FB6F894E29AE19AAF
:102190000FBE019608950E94BE10272F0C94BF1009
:1021A000DC01CB01FC01E199FECF06C0FFBBEEBB19
:1021B000E09A31960DB20D9241505040B8F7089513
:0421C000F894FFCFC1
:1021C400039F250D9949411F010920FF00DB0010E1
:1021D40020304083008200B626B626414C41524D41
:1021E40000536934373334205265763A20206C61C9
:1021F4007374203220646967697473206F66207079
:10220400617274206E6F2E202020636869702072C2
:10221400657620202020200A0D0020202020202068
:10222400202020202020202D2D2D2D2D2D2D2D2D35
:102234002D2D2D2D2D2D2D2D2D2D2D2D2D2D2D2DCA
:102244002020202D2D2D2D2D2D2D2D202020202022
:102254000A0D0020202020202020202020202020C3
:102264002020202020202020202020202000464D37
:102274005F5253515F5354415455533A2000737481
:102284006174757320627974652020203A00726548
:102294007370312020202020202020203A006672F4
:1022A4006571202020202020202020203A00667202
:1022B4006571206869676820202020203A006672D2
:1022C4006571206C6F772020202020203A007273E3
:0E22D4007369202020202020202020203A00A6
:00000001FF
