:100000000C9497000C94B6000C94B6000C94B600B7
:100010000C94B6000C94B6000C94B6000C94B60088
:100020000C94B8000C94B6000C94B6000C94B60076
:100030000C94B6000C94B6000C94B6000C94B60068
:100040000C94B6000C94B6000C94B6000C94B60058
:100050000C94B6000C94B6000C94B6000C94B60048
:100060000C94B6000C94B6000C94B6000C94B60038
:100070000C94B6000C94B6000C94B6000C94B60028
:100080000C94B6000C94AC010C94B600ED01C401C4
:10009000C401C401C401C401C401C401ED01C4010F
:1000A000C401C401C401C401C401C401F701C401F5
:1000B000C401C401C401C401C401C401C401C40118
:1000C000C401C401C401C401C401C401F701C401D5
:1000D000C401C401C401C401C401C401C401C401F8
:1000E000C401C401C401C401C401C4010E02C4019D
:1000F000C401C401C401C401C401C4011202C40189
:10010000C401C401C401C401C401C401C401C401C7
:10011000C401C401C401C401C401C4012002C4015A
:10012000C401C401C401C401C401C401DE0111241D
:100130001FBECFEFD0E1DEBFCDBF12E0A0E0B1E047
:10014000EEE0FDE000E00BBF02C007900D92A03191
:10015000B107D9F723E0A0E1B2E001C01D92AA30B7
:10016000B207E1F70E9492050C9485060C940000FA
:100170001F920F920FB60F9211248F9381E08093FC
:10018000AA028F910F900FBE0F901F901895482FC5
:10019000E82FF0E099B3EE0FFF1FEE5EFD4F2081D8
:1001A0003181220F331F306E892F90E002C0959568
:1001B00087954A95E2F781709927282B392B31834F
:1001C000208381E02115304F09F080E00895CF931E
:1001D000DF93EC019C01ADECBCEC0E941106AC017C
:1001E0005695479556954795569547959A01220FEE
:1001F000331FCA01880F991F880F991F880F991FF5
:10020000820F931FFE01E81BF90BE050FF4F808126
:1002100080937F029A010E94110696958795969584
:100220008795969587959C01220F331F880F991FFC
:10023000880F991F880F991F820F931F481B590B16
:10024000FA01E050FF4F80818093800280910A0183
:10025000809381029E013695279536952795ABE7C9
:10026000B4E10E941106AC01569547959A01ADEC98
:10027000BCEC0E9411069695879596958795969564
:1002800087959C01220F331F880F991F880F991F94
:10029000880F991F820F931F481B590BFA01E050DA
:1002A000FF4F8081809382029E0136952795369577
:1002B000279536952795A5ECB0E20E941106AC0172
:1002C000529542954F7045275F7045279A01ADECD6
:1002D000BCEC0E9411069695879596958795969504
:1002E00087959C01220F331F880F991F880F991F34
:1002F000880F991F820F931F481B590BFA01E0507A
:10030000FF4F808180938302CA30D105A0F0C436AC
:10031000D10548F0C83ED34018F48FEF8093830294
:10032000DF91CF9108958FEF8093820280938302B3
:10033000DF91CF9108958FEF8093800280938202A6
:1003400080938302DF91CF9108958AB7806C8ABF32
:1003500087B7806887BF08951F920F920FB60F92DC
:1003600011240BB60F922F933F938F939F93AF93CC
:10037000BF93EF93FF93E09171008E2F90E0FC010B
:100380003897E135F105B0F08091710080938402D7
:1003900084E080937400FF91EF91BF91AF919F91A2
:1003A0008F913F912F910F900BBE0F900FBE0F902A
:1003B0001F901895EA5BFF4F0C940806809122026B
:1003C000E0918502F0918602E80FF11D80917300A3
:1003D000808384E980937400DECF809187028093CC
:1003E00073001092220285E880937400D4CF80912C
:1003F000220290918802891760F7E0918502F091BE
:10040000860291E0980F90932202E80FF11D8081FF
:100410008093730085E880937400BDCF85EA809354
:100420007400B9CF209122028091880230E090E0E0
:10043000019728173907DCF485EC80937400ABCF63
:10044000E0918502F09186028091220221E0280F3E
:1004500020932202E80FF11D809173008083809128
:10046000880230E090E00197281739072CF385E8DF
:100470008093740090CF8091740081700895909162
:10048000740090FDFCCF8E7F80938702709386026C
:10049000609385024093880285EA809374000895F2
:1004A0009091740090FDFCCF8160809387027093DF
:1004B0008602609385024093880285EA80937400E7
:1004C00008958FEF80937300109271008CE08093F9
:1004D0007000089584E18093890241E069E872E048
:1004E00082E20E943F020E943B028111FCCF8FEA10
:1004F00094E00197F1F700C0000041E06BEA72E080
:1005000082E20E9450020E943B028111FCCF809146
:10051000AB02089580E28093890210928A02809152
:100520000B0190910C0190938B0280938C0210929E
:100530008D021092AA0245E069E872E082E20E9410
:100540003F028091AA028823E1F3089580E480931A
:10055000890210928A0280915102909152029093E6
:100560008B0280938C0210928D0210928E02109258
:10057000AA0246E069E872E082E20E943F028091AE
:10058000AA028823E1F30895E9E8F2E080E4808399
:10059000118280917B0290917C02928383831482EA
:1005A00081E0858346E0BF0182E20E943F022FEF97
:1005B00087EE93E0215080409040E1F700C00000BA
:1005C000089580911002909111028130910551F1AE
:1005D00000F1029741F460917B0270917C028DE7FB
:1005E00092E00E9470066091500283E292E00E94C5
:1005F000630681E18093890241E069E872E082E26A
:100600000E943F0287ED94E00197F1F700C00000DF
:10061000089560910B0170910C0184E292E00E94B8
:100620007006E1CF60915102709152028EE492E027
:100630000E947006D8CF83E28093890281E0809384
:100640008A0242E069E872E082E20E943F020E9470
:100650003B028111FCCF8FEA94E00197F1F700C0D3
:10066000000048E062E972E082E20E9450020E94CB
:100670003B028111FCCF089582E28093890281E0E0
:1006800080938A0242E069E872E082E20E943F02BF
:100690000E943B028111FCCF8FEA94E00197F1F7B1
:1006A00000C0000048E062E972E082E20E9450026D
:1006B0000E943B028111FCCF089582E4809389025D
:1006C00081E080938A0242E069E872E082E20E945F
:1006D0003F020E943B028111FCCF8FEA94E0019718
:1006E000F1F700C0000048E062E972E082E20C9499
:1006F000500283E48093890281E080938A0242E081
:1007000069E872E082E20E943F020E943B0281118E
:10071000FCCF8FEA94E00197F1F700C0000048E0B9
:1007200062E972E082E20C945002E9E8F2E022E130
:1007300020831182928383837483658346E0BF01A3
:1007400082E20E943F028FE39CE90197F1F700C02B
:100750000000089584E292E00E945D0690930C01EF
:1007600080930B0183E292E00E9455068093500231
:10077000E9E8F2E081E0808380E5818385E082839F
:1007800043E0BF0182E20E943F022FEF8BED95E034
:10079000215080409040E1F700C0000061E070E02F
:1007A00081E090E00C9495038EE492E00E945D0657
:1007B000909352028093510283E292E00E94550688
:1007C00080935002E9E8F2E081E0808381E5818353
:1007D00085E0828343E0BF0182E20E943F022FEF67
:1007E0008BED95E0215080409040E1F700C0000083
:1007F00061E070E081E090E00C9495038DE792E079
:100800000E945D0690937C0280937B0283E292E0DB
:100810000E94550680935002E9E8F2E081E080836F
:1008200081E5818385E0828343E0BF0182E20E940B
:100830003F022FEF8BED95E0215080409040E1F793
:1008400000C0000060E070E082E093E30E94950346
:1008500061E071E082E091E30E94950361E070E065
:1008600081E090E00C94950380E18093890241E05F
:1008700069E872E082E20E943F020E943B0281111D
:10088000FCCF8FEA94E00197F1F700C0000048E048
:100890006AE972E082E20E9450020E943B028111EA
:1008A000FCCF82E191E00E9436058BE491E00E944A
:1008B000360584E891E00E94360580919B024AE06B
:1008C00066E272E090E00E94200686E292E00E94DA
:1008D000360581E991E00E94360580919C024AE04C
:1008E00066E272E090E00E94200686E292E00E94BA
:1008F000360581E891E00C943605FF920F931F9323
:10090000CF93DF93CDB7DEB7A8970FB6F894DEBFCD
:100910000FBECDBF8FE991E00E9436058FEA91E0CE
:100920000E94360502E912E0F801808140E166E2AA
:1009300072E090E00E94200686E292E00E94360576
:1009400081E891E00E9436058FEB91E00E94360528
:10095000F80181814AE066E272E090E00E942006A0
:1009600086E292E00E94360581E891E00E94360519
:10097000F801F3808FEC91E00E9436054AE066E2D0
:1009800072E08F2D90E00E94200686E292E00E94A5
:10099000360581E891E00E9436058FED91E00E94D6
:1009A0003605F801828140E1BE016F5F7F4F90E024
:1009B0000E942006CE0101960E94360581E891E052
:1009C0000E9436058FEE91E00E943605F801838182
:1009D00040E1BE016F5F7F4F90E00E942006CE0194
:1009E00001960E94360581E891E00E9436058FEF5E
:1009F00091E00E943605F801848140E166E272E0F0
:100A000090E00E94200686E292E00E94360581E88E
:100A100091E00E943605A8960FB6F894DEBF0FBE8F
:100A2000CDBFDF91CF911F910F91FF9008955D9BF6
:100A3000FECF8CB95D9BFECF089590919B0095FFF2
:100A4000FCCF80939C0080919B0085FFFCCF089594
:100A5000FC019081992349F031965D9BFECF9CB9B2
:100A60005D9BFECF91919111F8CF0895FC012081FB
:100A7000222371F0319690919B0095FFFCCF20933B
:100A80009C0090919B0095FFFCCF21912111F3CF09
:100A900008959C01FC014491442369F00196F901F9
:100AA00024915D9BFECF2CB95D9BFECF9C01FC0188
:100AB00044914111F3CF08958AB188698AB9E5E973
:100AC000F0E08081866080831092900087E689B98B
:100AD0000895EAE9F0E0808188618083EDE9F0E043
:100AE0008081866080831092980087E680939900C9
:100AF000089580E89EE302C0019721F05F9BFCCF40
:100B00008CB1089580E0089580E89EE302C00197CB
:100B100039F020919B0027FFFACF80919C00089527
:100B200080E00895CF93DF9300D000D01F92CDB71F
:100B3000DEB70E946102139A80918B00826C8093D1
:100B40008B0080918A00896180938A0010928C00CA
:100B500080E090E7909387008093860080E090EF9C
:100B60009093810080938000129A1A9A8AB7806CC1
:100B70008ABF89B7806889BF1F98179A1A9A8FE130
:100B800093E00197F1F700C000001A9890EA9A9557
:100B9000F1F7179878940E94AA0386EB96E2909357
:100BA0000C0180930B010E948A0280EF87BB85E0D5
:100BB000EDE0F1E0DE01119601900D928A95E1F7EA
:100BC0008E010A5F1F4FFF24FA9480E7E82E1ABABD
:100BD000FBBA00000000E8BA80910B0190910C0173
:100BE0000E94E70018BAFABA00000000FE01319630
:100BF000AFE7B2E0819188BB8D918BBB8FE891E02C
:100C00000197F1F700C00000E017F10799F7DFCF77
:100C1000EE0FFF1F0024001C0BBE0790F691E02D85
:100C20000994A29FB001B39FC001A39F700D811DC5
:100C30001124911DB29F700D811D1124911D0895E5
:100C4000BB274A3031F4992322F4BDE29095819577
:100C50009F4F0C942C06BB27FB015527AA27880F12
:100C6000991FAA1FA41710F0A41B83955051B9F720
:100C7000A05DAA3308F0A95DA193009779F7B1119F
:100C8000B1931192CB010C944506DC01FC01672F56
:100C900071917723E1F7329704C07C916D93708353
:100CA0006291AE17BF07C8F30895E199FECF9FBBCD
:100CB0008EBBE09A99278DB30895A8E1B0E042E099
:100CC00050E00C947706262FE199FECF9FBB8EBB98
:100CD0002DBB0FB6F894E29AE19A0FBE01960895E3
:100CE0000E946306272F0C946406DC01CB01FC01F3
:100CF000E199FECF06C0FFBBEEBBE09A31960DB284
:0E0D00000D9241505040B8F70895F894FFCF7F
:100D0E00039F250D9949411F0109FFB626001020AA
:100D1E003040536934373334205265763A20206C94
:100D2E00617374203220646967697473206F662062
:100D3E0070617274206E6F2E20202063686970209F
:100D4E0072657620202020200A0D002020202020F1
:100D5E0020202020202020202D2D2D2D2D2D2D2D1D
:100D6E002D2D2D2D2D2D2D2D2D2D2D2D2D2D2D2DA5
:100D7E002D2020202D2D2D2D2D2D2D2D20202020F0
:100D8E00200A0D002020202020202020202020209E
:100D9E00202020202020202020202020202000463F
:100DAE004D5F5253515F5354415455533A20007383
:100DBE00746174757320627974652020203A007214
:100DCE00657370312020202020202020203A0066DC
:100DDE00726571202020202020202020203A0066DD
:100DEE00726571206869676820202020203A0066AD
:100DFE00726571206C6F772020202020203A0072BF
:100E0E00737369202020202020202020203A00000B
:00000001FF
