S00B0000666D322E7372656314
S11300000C9497000C94B6000C94B6000C94B600B3
S11300100C94B6000C94B6000C94B6000C94B60084
S11300200C94B8000C94B6000C94B6000C94B60072
S11300300C94B6000C94B6000C94B6000C94B60064
S11300400C94B6000C94B6000C94B6000C94B60054
S11300500C94B6000C94B6000C94B6000C94B60044
S11300600C94B6000C94B6000C94B6000C94B60034
S11300700C94B6000C94B6000C94B6000C94B60024
S11300800C94B6000C94C7000C94B6000801DF0071
S1130090DF00DF00DF00DF00DF00DF000801DF003A
S11300A0DF00DF00DF00DF00DF00DF001201DF0020
S11300B0DF00DF00DF00DF00DF00DF00DF00DF0044
S11300C0DF00DF00DF00DF00DF00DF001201DF0000
S11300D0DF00DF00DF00DF00DF00DF00DF00DF0024
S11300E0DF00DF00DF00DF00DF00DF002901DF00C9
S11300F0DF00DF00DF00DF00DF00DF002D01DF00B5
S1130100DF00DF00DF00DF00DF00DF00DF00DF00F3
S1130110DF00DF00DF00DF00DF00DF003B01DF0086
S1130120DF00DF00DF00DF00DF00DF00F900112463
S11301301FBECFEFD0E1DEBFCDBF12E0A0E0B1E043
S1130140E8EAFAE000E00BBF02C007900D92A0308D
S1130150B107D9F722E0A0E0B2E001C01D92A53EAC
S1130160B207E1F70E94AD040C9452050C94000010
S11301701F920F920FB60F9211248F9381E08093F8
S113018085028F910F900FBE0F901F9018951F92AC
S11301900F920FB60F9211240BB60F922F933F9329
S11301A08F939F93AF93BF93EF93FF93E09171006D
S11301B08E2F90E0FC013897E135F105B0F0809185
S11301C0710080935F0284E080937400FF91EF914B
S11301D0BF91AF919F918F913F912F910F900BBE43
S11301E00F900FBE0F901F901895EA5BFF4F0C9471
S11301F0E40480910202E0916002F0916102E80F50
S1130200F11D80917300808384E980937400DECFB4
S113021080916202809373001092020285E88093B9
S11302207400D4CF8091020290916302891760F721
S1130230E0916002F091610291E0980F90930202C4
S1130240E80FF11D80818093730085E8809374002A
S1130250BDCF85EA80937400B9CF209102028091CA
S1130260630230E090E0019728173907DCF485EC4D
S113027080937400ABCFE0916002F09161028091B1
S1130280020221E0280F20930202E80FF11D809161
S1130290730080838091630230E090E00197281717
S11302A039072CF385E88093740090CF8091740013
S11302B0817008959091740090FDFCCF8E7F80939F
S11302C0620270936102609360024093630285EA64
S11302D08093740008959091740090FDFCCF816028
S11302E080936202709361026093600240936302A0
S11302F085EA8093740008958FEF809373001092C1
S113030071008CE080937000089584E1809364020E
S113031041E064E672E082E20E945A010E945601C2
S11303208111FCCF8FEA94E00197F1F700C000003F
S113033041E066E872E082E20E946B010E9456018D
S11303408111FCCF80918602089580E2809364023B
S113035010926502809100019091010190936602D0
S113036080936702109268021092850245E064E669
S113037072E082E20E945A01809185028823E1F3AF
S1130380089580E4809364021092650280913102A2
S113039090913202909366028093670210926802F1
S11303A0109269021092850246E064E672E082E2ED
S11303B00E945A01809185028823E1F30895E4E6BE
S11303C0F2E080E48083118280915B0290915C0270
S11303D092838383148281E0858346E0BF0182E2B5
S11303E00E945A012FEF87EE93E021508040904005
S11303F0E1F700C00000089580910002909101028D
S11304008130910551F100F1029741F460915B0252
S113041070915C028DE592E00E943D05609130028E
S113042083E092E00E94300581E18093640241E020
S113043064E672E082E20E945A0187ED94E001973B
S1130440F1F700C00000089560910001709101016E
S113045084E092E00E943D05E1CF60913102709109
S113046032028EE292E00E943D05D8CF83E280936F
S1130470640281E08093650242E064E672E082E215
S11304800E945A010E9456018111FCCF8FEA94E028
S11304900197F1F700C0000048E06DE672E082E2E7
S11304A00E946B010E9456018111FCCF089582E2E3
S11304B08093640281E08093650242E064E672E026
S11304C082E20E945A010E9456018111FCCF8FEAF8
S11304D094E00197F1F700C0000048E06DE672E097
S11304E082E20E946B010E9456018111FCCF0895A3
S11304F082E48093640281E08093650242E064E6D2
S113050072E082E20E945A010E9456018111FCCFDE
S11305108FEA94E00197F1F700C0000048E06DE62F
S113052072E082E20C946B0183E48093640281E0C4
S11305308093650242E064E672E082E20E945A011E
S11305400E9456018111FCCF8FEA94E00197F1F7E4
S113055000C0000048E06DE672E082E20C946B019A
S1130560E4E6F2E022E120831182928383837483A0
S1130570658346E0BF0182E20E945A018FE39CE951
S11305800197F1F700C00000089584E092E00E9412
S11305902A05909301018093000183E092E00E9478
S11305A0220580933002E4E6F2E081E0808380E576
S11305B0818385E0828343E0BF0182E20E945A0185
S11305C02FEF8BED95E0215080409040E1F700C083
S11305D0000061E070E081E090E00C94B0028EE2F3
S11305E092E00E942A05909332028093310283E0C4
S11305F092E00E94220580933002E4E6F2E081E07A
S1130600808381E5818385E0828343E0BF0182E2C8
S11306100E945A012FEF8BED95E0215080409040CD
S1130620E1F700C0000061E070E081E090E00C942C
S1130630B0028DE592E00E942A0590935C028093BB
S11306405B0283E092E00E94220580933002E4E69C
S1130650F2E081E0808381E5818385E0828343E069
S1130660BF0182E20E945A012FEF8BED95E02150E9
S113067080409040E1F700C0000060E070E082E05C
S113068093E30E94B00261E071E082E091E30E9492
S1130690B00261E070E081E090E00C94B00280E18F
S11306A08093640241E064E672E082E20E945A01AF
S11306B00E9456018111FCCF8FEA94E00197F1F773
S11306C000C0000048E065E772E082E20E946B012E
S11306D00E9456018111FCCF82E091E00E945104F6
S11306E08BE391E00E94510484E791E00E9451045D
S11306F0809176024AE066E072E090E00E94ED04A8
S113070086E092E00E94510481E891E00E94510445
S1130710809177024AE066E072E090E00E94ED0486
S113072086E092E00E94510481E791E00C94510428
S1130730FF920F931F93CF93DF93CDB7DEB7A897A4
S11307400FB6F894DEBF0FBECDBF8FE891E00E94D4
S113075051048FE991E00E9451040DE612E0F80182
S1130760808140E166E072E090E00E94ED0486E062
S113077092E00E94510481E791E00E9451048FEAC3
S113078091E00E945104F80181814AE066E072E040
S113079090E00E94ED0486E092E00E94510481E71B
S11307A091E00E945104F801F3808FEB91E00E94E4
S11307B051044AE066E072E08F2D90E00E94ED045F
S11307C086E092E00E94510481E791E00E94510486
S11307D08FEC91E00E945104F801828140E1BE0156
S11307E06F5F7F4F90E00E94ED04CE0101960E945E
S11307F0510481E791E00E9451048FED91E00E9441
S11308005104F801838140E1BE016F5F7F4F90E0A6
S11308100E94ED04CE0101960E94510481E791E00B
S11308200E9451048FEE91E00E945104F8018481EA
S113083040E166E072E090E00E94ED0486E092E020
S11308400E94510481E791E00E945104A8960FB6DA
S1130850F894DEBF0FBECDBFDF91CF911F910F91F2
S1130860FF9008955D9BFECF8CB95D9BFECF0895EC
S113087090919B0095FFFCCF80939C0080919B00FE
S113088085FFFCCF0895FC019081992349F03196AE
S11308905D9BFECF9CB95D9BFECF91919111F8CFEA
S11308A00895FC012081222371F0319690919B00E0
S11308B095FFFCCF20939C0090919B0095FFFCCF6B
S11308C021912111F3CF08959C01FC01449144230B
S11308D069F00196F90124915D9BFECF2CB95D9BD3
S11308E0FECF9C01FC0144914111F3CF08958AB1DC
S11308F088698AB9E5E9F0E0808186608083109296
S1130900900087E689B90895EAE9F0E0808188617A
S11309108083EDE9F0E08081866080831092980006
S113092087E680939900089580E89EE302C00197CA
S113093021F05F9BFCCF8CB1089580E0089580E89E
S11309409EE302C0019739F020919B0027FFFACF64
S113095080919C00089580E008950E947C01139A80
S113096080918B00826C80938B0080918A008961D6
S113097080938A0010928C0080E090E79093870027
S11309808093860080E090EF9093810080938000B4
S1130990129A1A9A1F98179A1A9A8FE193E001975C
S11309A0F1F700C000001A9890EA9A95F1F71798A9
S11309B078940E94C50286E097E2909301018093A7
S11309C000010E94A501FFCFEE0FFF1F0024001CB1
S11309D00BBE0790F691E02D0994BB274A3031F401
S11309E0992322F4BDE2909581959F4F0C94F904CC
S11309F0BB27FB015527AA27880F991FAA1FA417F5
S1130A0010F0A41B83955051B9F7A05DAA3308F0E8
S1130A10A95DA193009779F7B111B1931192CB011C
S1130A200C941205DC01FC01672F71917723E1F727
S1130A30329704C07C916D9370836291AE17BF07A7
S1130A40C8F30895E199FECF9FBB8EBBE09A992726
S1130A508DB30895A8E1B0E042E050E00C94440561
S1130A60262FE199FECF9FBB8EBB2DBB0FB6F8940A
S1130A70E29AE19A0FBE019608950E943005272F4D
S1130A800C943105DC01CB01FC01E199FECF06C0D9
S1130A90FFBBEEBBE09A31960DB20D92415050402F
S10B0AA0B8F70895F894FFCFA4
S1130AA80627536934373334205265763A20206C4C
S1130AB8617374203220646967697473206F6620D7
S1130AC870617274206E6F2E202020636869702014
S1130AD872657620202020200A0D00202020202066
S1130AE820202020202020202D2D2D2D2D2D2D2D92
S1130AF82D2D2D2D2D2D2D2D2D2D2D2D2D2D2D2D1A
S1130B082D2020202D2D2D2D2D2D2D2D2020202064
S1130B18200A0D0020202020202020202020202012
S1130B2820202020202020202020202020200046B3
S1130B384D5F5253515F5354415455533A200073F7
S1130B48746174757320627974652020203A007288
S1130B58657370312020202020202020203A006650
S1130B68726571202020202020202020203A006651
S1130B78726571206869676820202020203A006621
S1130B88726571206C6F772020202020203A007233
S1130B98737369202020202020202020203A000080
S9030000FC
