:100000000C9497000C94B6000C94B6000C94B600B7
:100010000C94B6000C94B6000C94B6000C94B60088
:100020000C94CA010C94B6000C94B6000C94B60063
:100030000C94B6000C94B6000C94B6000C94B60068
:100040000C943D010C94B6000C94B6000C94B600D0
:100050000C94B6000C94B6000C94B6000C94B60048
:100060000C94B6000C94B6000C94B6000C94B60038
:100070000C94B6000C94B6000C94B6000C94B60028
:100080000C94B6000C949E020C94B600DF02B602EB
:10009000B602B602B602B602B602B602DF02B60277
:1000A000B602B602B602B602B602B602E902B6025D
:1000B000B602B602B602B602B602B602B602B60280
:1000C000B602B602B602B602B602B602E902B6023D
:1000D000B602B602B602B602B602B602B602B60260
:1000E000B602B602B602B602B602B6020003B60205
:1000F000B602B602B602B602B602B6020403B602F1
:10010000B602B602B602B602B602B602B602B6022F
:10011000B602B602B602B602B602B6021203B602C2
:10012000B602B602B602B602B602B602D002112478
:100130001FBECFEFD0E1DEBFCDBF12E0A0E0B1E047
:10014000EAE1FFE000E00BBF02C007900D92A23190
:10015000B107D9F723E0A2E1B2E001C01D92A331BB
:10016000B207E1F70E9484060C948B070C94000000
:10017000482FE82FF0E099B3EE0FFF1FE55EFD4F2B
:1001800020813181220F331F306E892F90E002C011
:10019000959587954A95E2F781709927282B392BF9
:1001A0003183208381E02115304F09F080E00895EC
:1001B000C09AC09808958FEF82B91D9A0000000080
:1001C0001E98000000001E9A1D9880911402282F8E
:1001D00023708C7090911A029130B1F020F092301F
:1001E00011F0933011F420931A0290911902943077
:1001F000D1F038F0983011F09C3031F5809319022D
:1002000008959923D9F30895233061F12111EBCF9B
:1002100040910D0150910E014654510950930E0129
:1002200040930D01E0CF8C3081F08111E7CF9091A8
:1002300017022091150230911602291B31093093C3
:10024000160220931502DACF08959091170220919B
:10025000150230911602290F311D3093160220939A
:100260001502CCCF40910D0150910E014A5B5F4FBA
:1002700050930E0140930D01B6CF1F920F920FB60F
:100280000F9211240BB60F922F933F934F935F93CE
:100290006F937F938F939F93AF93BF93CF93EF937E
:1002A000FF9388B3806788BB00000000EBE1F2E0B9
:1002B00040E050E060911802C4E0B2E0A1E071E0DB
:1002C000740F99B320813181220F331F306E892F33
:1002D00090E0042E02C0959587950A94E2F781700C
:1002E0009927282B392B3183208389B390E0042E62
:1002F00002C0959587950A94E2F781709927906ED0
:10030000220F331F822B932B819391938115904F52
:1003100071F1862F837031F5A0931702413051059A
:10032000F1F488B388BB809118028FB9779BFECF18
:100330008FB180931402FF91EF91CF91BF91AF9154
:100340009F918F917F916F915F914F913F912F91ED
:100350000F900BBE0F900FBE0F901F90189541E0AD
:1003600050E0ADCF813039F4B0931702D7CF672773
:1003700060931802CECF823019F4C0931702CECF0B
:1003800010921702CBCF87EF87BB8DB180658DB9F7
:10039000709A08951F920F920FB60F9211248F93A7
:1003A00081E08093B3028F910F900FBE0F901F904A
:1003B0001895CF93DF93EC019C01ADECBCEC0E944F
:1003C0001707AC015695479556954795569547950D
:1003D0009A01220F331FCA01880F991F880F991F96
:1003E000880F991F820F931FFE01E81BF90BE05045
:1003F000FF4F8081809388029A010E94170796958B
:10040000879596958795969587959C01220F331F22
:10041000880F991F880F991F880F991F820F931FAC
:10042000481B590BFA01E050FF4F808180938902ED
:1004300080910A0180938A029E0136952795369510
:100440002795ABE7B4E10E941707AC015695479595
:100450009A01ADECBCEC0E9417079695879596958E
:100460008795969587959C01220F331F880F991FBA
:10047000880F991F880F991F820F931F481B590BD4
:10048000FA01E050FF4F808180938B029E013695E8
:1004900027953695279536952795A5ECB0E20E94CD
:1004A0001707AC01529542954F7045275F7045275D
:1004B0009A01ADECBCEC0E9417079695879596952E
:1004C0008795969587959C01220F331F880F991F5A
:1004D000880F991F880F991F820F931F481B590B74
:1004E000FA01E050FF4F808180938C02CA30D10521
:1004F000A0F0C436D10548F0C83ED34018F48FEFC1
:1005000080938C02DF91CF9108958FEF80938B02BF
:1005100080938C02DF91CF9108958FEF80938902B1
:1005200080938B0280938C02DF91CF9108958AB7DC
:10053000806C8ABF87B7806887BF08951F920F922B
:100540000FB60F9211240BB60F922F933F938F93F8
:100550009F93AF93BF93EF93FF93E09171008E2F22
:1005600090E0FC013897E135F105B0F08091710021
:1005700080938D0284E080937400FF91EF91BF918E
:10058000AF919F918F913F912F910F900BBE0F9044
:100590000FBE0F901F901895EA5BFF4F0C940E074B
:1005A00080912B02E0918E02F0918F02E80FF11DF5
:1005B00080917300808384E980937400DECF809102
:1005C00090028093730010922B0285E88093740050
:1005D000D4CF80912B0290919102891760F7E0911E
:1005E0008E02F0918F0291E0980F90932B02E80F0A
:1005F000F11D80818093730085E880937400BDCFE6
:1006000085EA80937400B9CF20912B0280919102EA
:1006100030E090E0019728173907DCF485EC8093EF
:100620007400ABCFE0918E02F0918F0280912B028B
:1006300021E0280F20932B02E80FF11D8091730019
:1006400080838091910230E090E00197281739076C
:100650002CF385E88093740090CF809174008170B2
:1006600008959091740090FDFCCF8E7F809390024E
:1006700070938F0260938E024093910285EA80937B
:10068000740008959091740090FDFCCF8160809378
:10069000900270938F0260938E024093910285EADC
:1006A0008093740008958FEF80937300109271000F
:1006B0008CE080937000089584E18093920241E081
:1006C00062E972E082E20E9431030E942D038111EF
:1006D000FCCF8FEA94E00197F1F700C0000041E001
:1006E00064EB72E082E20E9442030E942D038111BA
:1006F000FCCF8091B402089580E280939202109220
:10070000930280910B0190910C019093940280933D
:100710009502109296021092B30245E062E972E0EF
:1007200082E20E9431038091B3028823E1F30895AD
:1007300080E4809392021092930280915A029091E9
:100740005B0290939402809395021092960210920D
:1007500097021092B30246E062E972E082E20E94E0
:1007600031038091B3028823E1F30895E2E9F2E0D6
:1007700080E480831182809184029091850292832B
:100780008383148281E0858346E0BF0182E20E9478
:1007900031032FEF87EE93E0215080409040E1F746
:1007A00000C00000089580911202909113028130E0
:1007B000910551F100F1029741F46091840270912A
:1007C000850286E892E00E947607609159028CE2E9
:1007D00092E00E94690781E18093920241E062E920
:1007E00072E082E20E94310387ED94E00197F1F715
:1007F00000C00000089560910B0170910C018DE222
:1008000092E00E947607E1CF60915A0270915B02FC
:1008100087E592E00E947607D8CF83E28093920228
:1008200081E08093930242E062E972E082E20E94FA
:1008300031030E942D038111FCCF8FEA94E00197D0
:10084000F1F700C0000048E06BE972E082E20E942C
:1008500042030E942D038111FCCF089582E2809310
:10086000920281E08093930242E062E972E082E2C8
:100870000E9431030E942D038111FCCF8FEA94E086
:100880000197F1F700C0000048E06BE972E082E2F6
:100890000E9442030E942D038111FCCF089582E43F
:1008A0008093920281E08093930242E062E972E0D9
:1008B00082E20E9431030E942D038111FCCF8FEA56
:1008C00094E00197F1F700C0000048E06BE972E0A6
:1008D00082E20C94420383E48093920281E080934D
:1008E000930242E062E972E082E20E9431030E94D8
:1008F0002D038111FCCF8FEA94E00197F1F700C03E
:10090000000048E06BE972E082E20C944203E2E905
:10091000F2E022E1208311829283838374836583D2
:1009200046E0BF0182E20E9431038FE39CE9019718
:10093000F1F700C0000008958DE292E00E94630785
:1009400090930C0180930B018CE292E00E945B0774
:1009500080935902E2E9F2E081E0808380E58183BF
:1009600085E0828343E0BF0182E20E9431032FEFE2
:100970008BED95E0215080409040E1F700C00000F1
:1009800061E070E081E090E00C94870487E592E0FC
:100990000E94630790935B0280935A028CE292E07C
:1009A0000E945B0780935902E2E9F2E081E08083D4
:1009B00081E5818385E0828343E0BF0182E20E947A
:1009C00031032FEF8BED95E0215080409040E1F70F
:1009D00000C0000061E070E081E090E00C948704CA
:1009E00086E892E00E9463079093850280938402D8
:1009F0008CE292E00E945B0780935902E2E9F2E008
:100A000081E0808381E5818385E0828343E0BF01CB
:100A100082E20E9431032FEF8BED95E02150804060
:100A20009040E1F700C0000060E070E082E093E3F6
:100A30000E94870461E071E082E091E30E948704F4
:100A400061E070E081E090E00C94870480E18093A5
:100A5000920241E062E972E082E20E9431030E9468
:100A60002D038111FCCF8FEA94E00197F1F700C0CC
:100A7000000048E063EA72E082E20E9442030E94C2
:100A80002D038111FCCF84E191E00E9428068DE4C2
:100A900091E00E94280686E891E00E942806809155
:100AA000A4024AE06FE272E090E00E9426078FE223
:100AB00092E00E94280683E991E00E942806809136
:100AC000A5024AE06FE272E090E00E9426078FE202
:100AD00092E00E94280683E891E00C942806FF9299
:100AE0000F931F93CF93DF93CDB7DEB7A8970FB6C1
:100AF000F894DEBF0FBECDBF81EA91E00E942806C8
:100B000081EB91E00E9428060BE912E0F801808158
:100B100040E16FE272E090E00E9426078FE292E0EF
:100B20000E94280683E891E00E94280681EC91E06B
:100B30000E942806F80181814AE06FE272E090E0AD
:100B40000E9426078FE292E00E94280683E891E047
:100B50000E942806F801F38081ED91E00E942806AA
:100B60004AE06FE272E08F2D90E00E9426078FE24C
:100B700092E00E94280683E891E00E94280681EE18
:100B800091E00E942806F801828140E1BE016F5F7A
:100B90007F4F90E00E942607CE0101960E94280612
:100BA00083E891E00E94280681EF91E00E942806E8
:100BB000F801838140E1BE016F5F7F4F90E00E94AA
:100BC0002607CE0101960E94280683E891E00E9444
:100BD000280681E092E00E942806F801848140E125
:100BE0006FE272E090E00E9426078FE292E00E949E
:100BF000280683E891E00E942806A8960FB6F8948C
:100C0000DEBF0FBECDBFDF91CF911F910F91FF903F
:100C100008955D9BFECF8CB95D9BFECF08959091AA
:100C20009B0095FFFCCF80939C0080919B0085FFEB
:100C3000FCCF0895FC019081992349F031965D9B8A
:100C4000FECF9CB95D9BFECF91919111F8CF089595
:100C5000FC012081222371F0319690919B0095FF39
:100C6000FCCF20939C0090919B0095FFFCCF21919D
:100C70002111F3CF08959C01FC014491442369F0B4
:100C80000196F90124915D9BFECF2CB95D9BFECFAF
:100C90009C01FC0144914111F3CF08958AB1886908
:100CA0008AB9E5E9F0E08081866080831092900047
:100CB00087E689B90895EAE9F0E080818861808358
:100CC000EDE9F0E08081866080831092980087E6ED
:100CD00080939900089580E89EE302C0019721F077
:100CE0005F9BFCCF8CB1089580E0089580E89EE37F
:100CF00002C0019739F020919B0027FFFACF809125
:100D00009C00089580E00895CF93DF9300D000D039
:100D10001F92CDB7DEB70E94530387EF87BB8DB11B
:100D200080658DB9709A87B7816087BF83B785600A
:100D300083BF139A80918B00826C80938B0080918B
:100D40008A00896180938A0010928C0080E090E78D
:100D5000909387008093860080E090EF90938100CD
:100D600080938000129A1A9A8AB7806C8ABF89B7DA
:100D7000806889BF1F98179A1A9A8FE193E00197AC
:100D8000F1F700C000001A9890EA9A95F1F71798C9
:100D900078940E949C0486EB96E290930C018093D9
:100DA0000B010E947C0380EF87BB85E0EFE0F1E060
:100DB000DE01119601900D928A95E1F78E010A5F8E
:100DC0001F4FFF24FA9480910B0190910C01909396
:100DD0001602809315020E94DB00C09AC0981ABACE
:100DE000FBBA0000000080911502909116020E944B
:100DF000D901FABA00000000FE013196A8E8B2E07D
:100E0000819188BB8D918BBB8FE891E00197F1F7C1
:100E100000C00000E017F10799F7D5CFEE0FFF1FD4
:100E20000024001C0BBE0790F691E02D0994A29FB0
:100E3000B001B39FC001A39F700D811D1124911DAE
:100E4000B29F700D811D1124911D0895BB274A305A
:100E500031F4992322F4BDE2909581959F4F0C9433
:100E60003207BB27FB015527AA27880F991FAA1F06
:100E7000A41710F0A41B83955051B9F7A05DAA33B5
:100E800008F0A95DA193009779F7B111B193119280
:100E9000CB010C944B07DC01FC01672F7191772388
:100EA000E1F7329704C07C916D9370836291AE1725
:100EB000BF07C8F30895E199FECF9FBB8EBBE09AB0
:100EC00099278DB30895A8E1B0E042E050E00C947A
:100ED0007D07262FE199FECF9FBB8EBB2DBB0FB6A2
:100EE000F894E29AE19A0FBE019608950E9469076C
:100EF000272F0C946A07DC01CB01FC01E199FECF9E
:100F000006C0FFBBEEBBE09A31960DB20D92415088
:0A0F10005040B8F70895F894FFCFA1
:100F1A00039F250D9949411F0109FFB626B62600F0
:100F2A0010203040536934373334205265763A20E2
:100F3A00206C617374203220646967697473206F4E
:100F4A00662070617274206E6F2E2020206368699B
:100F5A00702072657620202020200A0D0020202093
:100F6A00202020202020202020202D2D2D2D2D2D29
:100F7A002D2D2D2D2D2D2D2D2D2D2D2D2D2D2D2D97
:100F8A002D2D2D2020202D2D2D2D2D2D2D2D2020C8
:100F9A002020200A0D002020202020202020202090
:100FAA002020202020202020202020202020202037
:100FBA0000464D5F5253515F5354415455533A20A2
:100FCA000073746174757320627974652020203A05
:100FDA000072657370312020202020202020203AC2
:100FEA000066726571202020202020202020203ACF
:100FFA000066726571206869676820202020203A9F
:10100A000066726571206C6F772020202020203ABC
:10101A000072737369202020202020202020203A8B
:02102A000000C4
:00000001FF
