S00D000074756E65322E7372656329
S11300000C9497000C94B6000C94B6000C94B600B3
S11300100C94B6000C94B6000C94B6000C94B60084
S11300200C94B8000C94B6000C94B6000C94B60072
S11300300C94B6000C94B6000C94B6000C94B60064
S11300400C9448010C94B6000C94B6000C94B600C1
S11300500C94B6000C94B6000C94B6000C94B60044
S11300600C94B6000C94B6000C94B6000C94B60034
S11300700C94B6000C94B6000C94B6000C94B60024
S11300800C94B6000C9485020C94B600C6029D0232
S11300909D029D029D029D029D029D02C6029D023B
S11300A09D029D029D029D029D029D02D0029D0221
S11300B09D029D029D029D029D029D029D029D0244
S11300C09D029D029D029D029D029D02D0029D0201
S11300D09D029D029D029D029D029D029D029D0224
S11300E09D029D029D029D029D029D02E7029D02CA
S11300F09D029D029D029D029D029D02EB029D02B6
S11301009D029D029D029D029D029D029D029D02F3
S11301109D029D029D029D029D029D02F9029D0287
S11301209D029D029D029D029D029D02B702112423
S11301301FBECFEFD0E1DEBFCDBF12E0A0E0B1E043
S1130140E0EEFEE000E00BBF02C007900D92A0318C
S1130150B107D9F723E0A0E1B2E001C01D92A131BB
S1130160B207E1F70E9462060C946E070C9400003B
S11301701F920F920FB60F9211248F9381E08093F8
S1130180B1028F910F900FBE0F901F901895482FBA
S1130190E82FF0E099B3EE0FFF1FE75EFD4F2081DB
S11301A03181220F331F306E892F90E002C0959564
S11301B087954A95E2F781709927282B392B31834B
S11301C0208381E02115304F09F080E00895C09A22
S11301D0C09808958FEF82B91D9A000000001E9800
S11301E0000000001E9A1D9880911002282F237091
S11301F08C70909118029130B1F020F0923011F08F
S1130200933011F420931802909117029430D1F096
S113021038F0983011F09C3021F58093170208953E
S11302209923D9F30895233041F12111EBCF409163
S11302300B0150910C014451510950930C0140930E
S11302400B01E0CF8C3071F08111E7CF20911102C6
S11302503091120224513109309312022093110279
S1130260DCCF089520911102309112022C5E3F4F91
S11302703093120220931102D0CF40910B01509180
S11302800C014C5E5F4F50930C0140930B01BACFAD
S11302901F920F920FB60F9211240BB60F922F9349
S11302A03F934F935F936F937F938F939F93AF93FA
S11302B0EF93FF9388B3806788BB000000006091D0
S11302C01402E9E1F2E040E050E0A1E071E0740FD3
S11302D099B320813181220F331F306E892F90E032
S11302E0042E02C0959587950A94E2F781709927A8
S11302F0282B392B3183208389B390E0042E02C04C
S1130300959587950A94E2F781709927906E220F4C
S1130310331F822B932B819391938115904F61F11D
S1130320862F837021F5A093130241305105E1F427
S113033088B388BB809114028FB9779BFECF8FB1AD
S113034080931002FF91EF91AF919F918F917F91D4
S11303506F915F914F913F912F910F900BBE0F9032
S11303600FBE0F901F90189541E050E0AFCF83303F
S1130370E1F610921302D9CF672760931402D0CF0D
S113038087EF87BB8DB180658DB9709A0895CF933F
S1130390DF93EC019C01ADECBCEC0E94FA06AC01CD
S11303A05695479556954795569547959A01220F28
S11303B0331FCA01880F991F880F991F880F991F2F
S11303C0820F931FFE01E81BF90BE050FF4F808161
S11303D0809386029A010E94FA06969587959695CF
S11303E08795969587959C01220F331F880F991F37
S11303F0880F991F880F991F820F931F481B590B51
S1130400FA01E050FF4F80818093870280910A01B6
S1130410809388029E013695279536952795ABE7FC
S1130420B4E10E94FA06AC01569547959A01ADECE9
S1130430BCEC0E94FA0696958795969587959695B5
S113044087959C01220F331F880F991F880F991FCE
S1130450880F991F820F931F481B590BFA01E05014
S1130460FF4F8081809389029E01369527953695AA
S1130470279536952795A5ECB0E20E94FA06AC01C3
S1130480529542954F7045275F7045279A01ADEC10
S1130490BCEC0E94FA069695879596958795969555
S11304A087959C01220F331F880F991F880F991F6E
S11304B0880F991F820F931F481B590BFA01E050B4
S11304C0FF4F808180938A02CA30D105A0F0C436E0
S11304D0D10548F0C83ED34018F48FEF80938A02C8
S11304E0DF91CF9108958FEF8093890280938A02E0
S11304F0DF91CF9108958FEF8093870280938902D3
S113050080938A02DF91CF9108951F920F920FB6C4
S11305100F9211240BB60F922F933F938F939F93B7
S1130520AF93BF93EF93FF93E09171008E2F90E010
S1130530FC013897E135F105B0F0809171008093AA
S11305408B0284E080937400FF91EF91BF91AF918F
S11305509F918F913F912F910F900BBE0F900FBEE3
S11305600F901F901895EA5BFF4F0C94F106809151
S11305702902E0918C02F0918D02E80FF11D809127
S11305807300808384E980937400DECF80918E02AF
S1130590809373001092290285E880937400D4CF6D
S11305A08091290290918F02891760F7E0918C0263
S11305B0F0918D0291E0980F90932902E80FF11DBC
S11305C080818093730085E880937400BDCF85EAB1
S11305D080937400B9CF2091290280918F0230E07A
S11305E090E0019728173907DCF485EC80937400B8
S11305F0ABCFE0918C02F0918D028091290221E031
S1130600280F20932902E80FF11D80917300808345
S113061080918F0230E090E00197281739072CF37E
S113062085E88093740090CF809174008170089560
S11306309091740090FDFCCF8E7F80938E02709316
S11306408D0260938C0240938F0285EA809374003C
S113065008959091740090FDFCCF816080938E0288
S113066070938D0260938C0240938F0285EA80938D
S1130670740008958FEF80937300109271008CE0E2
S113068080937000089584E18093900241E060E9D2
S113069072E082E20E9418030E9414038111FCCFCD
S11306A08FEA94E00197F1F700C0000041E062EBAB
S11306B072E082E20E9429030E9414038111FCCF9C
S11306C08091B2020895E0E9F2E080E28083118231
S11306D080910B0190910C01928383831482109278
S11306E0B10245E0BF0182E20C94180380E48093D8
S11306F09002109291028091580290915902909325
S11307009202809393021092940210929502109296
S1130710B10246E060E972E082E20E94180380912F
S1130720B1028823E1F30895E0E9F2E080E48083F4
S11307301182809182029091830292838383148236
S113074081E0858346E0BF0182E20E9418032FEF17
S113075087EE93E0215080409040E1F700C0000014
S1130760089580911502909116028130910551F1FE
S113077000F1029741F4609182027091830284E84F
S113078092E00E945907609157028AE292E00E9427
S11307904C0781E18093900241E060E972E082E2DB
S11307A00E94180387ED94E00197F1F700C0000060
S11307B0089560910B0170910C018BE292E00E940C
S11307C05907E1CF609158027091590285E592E092
S11307D00E945907D8CF83E28093900281E08093EE
S11307E0910242E060E972E082E20E9418030E94F2
S11307F014038111FCCF8FEA94E00197F1F700C054
S1130800000048E069E972E082E20E9429030E9444
S113081014038111FCCF089582E28093900281E059
S11308208093910242E060E972E082E20E94180340
S11308300E9414038111FCCF8FEA94E00197F1F731
S113084000C0000048E069E972E082E20E942903E6
S11308500E9414038111FCCF089582E480939002D6
S113086081E08093910242E060E972E082E20E94BA
S113087018030E9414038111FCCF8FEA94E00197BE
S1130880F1F700C0000048E069E972E082E20C94EC
S1130890290383E48093900281E08093910242E0F3
S11308A060E972E082E20E9418030E94140381113D
S11308B0FCCF8FEA94E00197F1F700C0000048E014
S11308C069E972E082E20C942903E0E9F2E022E1B2
S11308D020831182928383837483658346E0BF01FE
S11308E082E20E9418038FE39CE90197F1F700C0AC
S11308F0000008958BE292E00E94460790930C0159
S113090080930B018AE292E00E943E078093570293
S1130910E0E9F2E081E0808380E5818385E0828301
S113092043E0BF0182E20E9418032FEF8BED95E0B4
S1130930215080409040E1F700C0000061E070E089
S113094081E090E00C94650485E592E00E944607FE
S113095090935902809358028AE292E00E943E07E3
S113096080935702E0E9F2E081E0808381E58183AE
S113097085E0828343E0BF0182E20E9418032FEFE7
S11309808BED95E0215080409040E1F700C00000DD
S113099061E070E081E090E00C94650484E892E00A
S11309A00E94460790938302809382028AE292E037
S11309B00E943E0780935702E0E9F2E081E08083E1
S11309C081E5818385E0828343E0BF0182E20E9466
S11309D018032FEF8BED95E0215080409040E1F714
S11309E000C0000060E070E082E093E30E946504D0
S11309F061E071E082E091E30E94650461E070E0EF
S1130A0081E090E00C94650480E18093900241E0E1
S1130A1060E972E082E20E9418030E9414038111CB
S1130A20FCCF8FEA94E00197F1F700C0000048E0A2
S1130A3061EA72E082E20E9429030E941403811198
S1130A40FCCF82E191E00E9406068BE491E00E94D3
S1130A50060684E891E00E9406068091A2024AE01C
S1130A606DE272E090E00E9409078DE292E00E943C
S1130A70060681E991E00E9406068091A3024AE0FD
S1130A806DE272E090E00E9409078DE292E00E941C
S1130A90060681E891E00C940606FF920F931F93DB
S1130AA0CF93DF93CDB7DEB7A8970FB6F894DEBF28
S1130AB00FBECDBF8FE991E00E9406068FEA91E058
S1130AC00E94060609E912E0F801808140E16DE226
S1130AD072E090E00E9409078DE292E00E9406060F
S1130AE081E891E00E9406068FEB91E00E940606E1
S1130AF0F80181814AE06DE272E090E00E9409070A
S1130B008DE292E00E94060681E891E00E940606CA
S1130B10F801F3808FEC91E00E9406064AE06DE252
S1130B2072E08F2D90E00E9409078DE292E00E940E
S1130B30060681E891E00E9406068FED91E00E948E
S1130B400606F801828140E1BE016F5F7F4F90E0AD
S1130B500E940907CE0101960E94060681E891E0F1
S1130B600E9406068FEE91E00E940606F80183813A
S1130B7040E1BE016F5F7F4F90E00E940907CE0104
S1130B8001960E94060681E891E00E9406068FEF16
S1130B9091E00E940606F801848140E16DE272E072
S1130BA090E00E9409078DE292E00E94060681E827
S1130BB091E00E940606A8960FB6F894DEBF0FBE19
S1130BC0CDBFDF91CF911F910F91FF9008955D9B51
S1130BD0FECF8CB95D9BFECF089590919B0095FF4D
S1130BE0FCCF80939C0080919B0085FFFCCF0895EF
S1130BF0FC019081992349F031965D9BFECF9CB90D
S1130C005D9BFECF91919111F8CF0895FC01208155
S1130C10222371F0319690919B0095FFFCCF209395
S1130C209C0090919B0095FFFCCF21912111F3CF63
S1130C3008959C01FC014491442369F00196F90153
S1130C4024915D9BFECF2CB95D9BFECF9C01FC01E2
S1130C5044914111F3CF08958AB188698AB9E5E9CD
S1130C60F0E08081866080831092900087E689B9E5
S1130C700895EAE9F0E0808188618083EDE9F0E09D
S1130C808081866080831092980087E68093990023
S1130C90089580E89EE302C0019721F05F9BFCCF9A
S1130CA08CB1089580E0089580E89EE302C0019726
S1130CB039F020919B0027FFFACF80919C00089582
S1130CC080E00895CF93DF9300D000D01F92CDB77A
S1130CD0DEB70E943A0385E0EDE0F1E0DE01119613
S1130CE001900D928A95E1F787EF87BB8DB18065FE
S1130CF08DB9709A87B7816087BF83B7856083BFDA
S1130D00139A80918B00826C80938B0080918A006F
S1130D10896180938A0010928C0080E090E7909320
S1130D2087008093860080E090EF90938100809309
S1130D308000129A1A9A8AB7806C8ABF89B7806831
S1130D4089BF1F98179A1A9A8FE193E00197F1F7D8
S1130D5000C000001A9890EA9A95F1F717987894D1
S1130D600E947A0486EB96E290930C0180930B0127
S1130D708E010A5F1F4FFF24FA940E94EA00C09A72
S1130D80C0981ABAFBBA0000000080910B01909140
S1130D900C010E94C701809114028230C1F081309D
S1130DA0D9F0FABA00000000FBBAFE013196A6E8B9
S1130DB0B2E0819188BB8D918BBB8FE891E0019764
S1130DC0F1F700C00000E017F10799F7D6CF0E94B1
S1130DD0630310921402E5CF0E94B1030E947A04C7
S1130DE0E0CFEE0FFF1F0024001C0BBE0790F6910E
S1130DF0E02D0994A29FB001B39FC001A39F700D81
S1130E00811D1124911DB29F700D811D1124911D0E
S1130E100895BB274A3031F4992322F4BDE290951A
S1130E2081959F4F0C941507BB27FB015527AA27D3
S1130E30880F991FAA1FA41710F0A41B8395505163
S1130E40B9F7A05DAA3308F0A95DA193009779F7DB
S1130E50B111B1931192CB010C942E07DC01FC016A
S1130E60672F71917723E1F7329704C07C916D93DA
S1130E7070836291AE17BF07C8F30895E199FECF5E
S1130E809FBB8EBBE09A99278DB30895A8E1B0E08B
S1130E9042E050E00C946007262FE199FECF9FBBFF
S1130EA08EBB2DBB0FB6F894E29AE19A0FBE019661
S1130EB008950E944C07272F0C944D07DC01CB01A9
S1130EC0FC01E199FECF06C0FFBBEEBBE09A319670
S1130ED00DB20D9241505040B8F70895F894FFCFE9
S1130EE0039F250D9949411F0109FFB626001020D3
S1130EF03040536934373334205265763A20206CBD
S1130F00617374203220646967697473206F66208A
S1130F1070617274206E6F2E2020206368697020C7
S1130F2072657620202020200A0D00202020202019
S1130F3020202020202020202D2D2D2D2D2D2D2D45
S1130F402D2D2D2D2D2D2D2D2D2D2D2D2D2D2D2DCD
S1130F502D2020202D2D2D2D2D2D2D2D2020202018
S1130F60200A0D00202020202020202020202020C6
S1130F702020202020202020202020202020004667
S1130F804D5F5253515F5354415455533A200073AB
S1130F90746174757320627974652020203A00723C
S1130FA0657370312020202020202020203A006604
S1130FB0726571202020202020202020203A006605
S1130FC0726571206869676820202020203A0066D5
S1130FD0726571206C6F772020202020203A0072E7
S1130FE0737369202020202020202020203A000034
S9030000FC
